{
  "_format": "hh-sol-artifact-1",
  "contractName": "LPToken",
  "sourceName": "contracts/LPToken.sol",
  "abi": [
    {
      "inputs": [],
      "stateMutability": "nonpayable",
      "type": "constructor"
    },
    {
      "inputs": [
        {
          "internalType": "address",
          "name": "spender",
          "type": "address"
        },
        {
          "internalType": "uint256",
          "name": "allowance",
          "type": "uint256"
        },
        {
          "internalType": "uint256",
          "name": "needed",
          "type": "uint256"
        }
      ],
      "name": "ERC20InsufficientAllowance",
      "type": "error"
    },
    {
      "inputs": [
        {
          "internalType": "address",
          "name": "sender",
          "type": "address"
        },
        {
          "internalType": "uint256",
          "name": "balance",
          "type": "uint256"
        },
        {
          "internalType": "uint256",
          "name": "needed",
          "type": "uint256"
        }
      ],
      "name": "ERC20InsufficientBalance",
      "type": "error"
    },
    {
      "inputs": [
        {
          "internalType": "address",
          "name": "approver",
          "type": "address"
        }
      ],
      "name": "ERC20InvalidApprover",
      "type": "error"
    },
    {
      "inputs": [
        {
          "internalType": "address",
          "name": "receiver",
          "type": "address"
        }
      ],
      "name": "ERC20InvalidReceiver",
      "type": "error"
    },
    {
      "inputs": [
        {
          "internalType": "address",
          "name": "sender",
          "type": "address"
        }
      ],
      "name": "ERC20InvalidSender",
      "type": "error"
    },
    {
      "inputs": [
        {
          "internalType": "address",
          "name": "spender",
          "type": "address"
        }
      ],
      "name": "ERC20InvalidSpender",
      "type": "error"
    },
    {
      "inputs": [
        {
          "internalType": "address",
          "name": "owner",
          "type": "address"
        }
      ],
      "name": "OwnableInvalidOwner",
      "type": "error"
    },
    {
      "inputs": [
        {
          "internalType": "address",
          "name": "account",
          "type": "address"
        }
      ],
      "name": "OwnableUnauthorizedAccount",
      "type": "error"
    },
    {
      "anonymous": false,
      "inputs": [
        {
          "indexed": true,
          "internalType": "address",
          "name": "owner",
          "type": "address"
        },
        {
          "indexed": true,
          "internalType": "address",
          "name": "spender",
          "type": "address"
        },
        {
          "indexed": false,
          "internalType": "uint256",
          "name": "value",
          "type": "uint256"
        }
      ],
      "name": "Approval",
      "type": "event"
    },
    {
      "anonymous": false,
      "inputs": [
        {
          "indexed": true,
          "internalType": "address",
          "name": "previousOwner",
          "type": "address"
        },
        {
          "indexed": true,
          "internalType": "address",
          "name": "newOwner",
          "type": "address"
        }
      ],
      "name": "OwnershipTransferred",
      "type": "event"
    },
    {
      "anonymous": false,
      "inputs": [
        {
          "indexed": true,
          "internalType": "address",
          "name": "from",
          "type": "address"
        },
        {
          "indexed": true,
          "internalType": "address",
          "name": "to",
          "type": "address"
        },
        {
          "indexed": false,
          "internalType": "uint256",
          "name": "value",
          "type": "uint256"
        }
      ],
      "name": "Transfer",
      "type": "event"
    },
    {
      "inputs": [
        {
          "internalType": "address",
          "name": "owner",
          "type": "address"
        },
        {
          "internalType": "address",
          "name": "spender",
          "type": "address"
        }
      ],
      "name": "allowance",
      "outputs": [
        {
          "internalType": "uint256",
          "name": "",
          "type": "uint256"
        }
      ],
      "stateMutability": "view",
      "type": "function"
    },
    {
      "inputs": [
        {
          "internalType": "address",
          "name": "spender",
          "type": "address"
        },
        {
          "internalType": "uint256",
          "name": "value",
          "type": "uint256"
        }
      ],
      "name": "approve",
      "outputs": [
        {
          "internalType": "bool",
          "name": "",
          "type": "bool"
        }
      ],
      "stateMutability": "nonpayable",
      "type": "function"
    },
    {
      "inputs": [
        {
          "internalType": "address",
          "name": "account",
          "type": "address"
        }
      ],
      "name": "balanceOf",
      "outputs": [
        {
          "internalType": "uint256",
          "name": "",
          "type": "uint256"
        }
      ],
      "stateMutability": "view",
      "type": "function"
    },
    {
      "inputs": [
        {
          "internalType": "address",
          "name": "from",
          "type": "address"
        },
        {
          "internalType": "uint256",
          "name": "amount",
          "type": "uint256"
        }
      ],
      "name": "burn",
      "outputs": [],
      "stateMutability": "nonpayable",
      "type": "function"
    },
    {
      "inputs": [],
      "name": "decimals",
      "outputs": [
        {
          "internalType": "uint8",
          "name": "",
          "type": "uint8"
        }
      ],
      "stateMutability": "view",
      "type": "function"
    },
    {
      "inputs": [
        {
          "internalType": "address",
          "name": "to",
          "type": "address"
        },
        {
          "internalType": "uint256",
          "name": "amount",
          "type": "uint256"
        }
      ],
      "name": "mint",
      "outputs": [],
      "stateMutability": "nonpayable",
      "type": "function"
    },
    {
      "inputs": [],
      "name": "name",
      "outputs": [
        {
          "internalType": "string",
          "name": "",
          "type": "string"
        }
      ],
      "stateMutability": "view",
      "type": "function"
    },
    {
      "inputs": [],
      "name": "owner",
      "outputs": [
        {
          "internalType": "address",
          "name": "",
          "type": "address"
        }
      ],
      "stateMutability": "view",
      "type": "function"
    },
    {
      "inputs": [],
      "name": "renounceOwnership",
      "outputs": [],
      "stateMutability": "nonpayable",
      "type": "function"
    },
    {
      "inputs": [],
      "name": "symbol",
      "outputs": [
        {
          "internalType": "string",
          "name": "",
          "type": "string"
        }
      ],
      "stateMutability": "view",
      "type": "function"
    },
    {
      "inputs": [],
      "name": "totalSupply",
      "outputs": [
        {
          "internalType": "uint256",
          "name": "",
          "type": "uint256"
        }
      ],
      "stateMutability": "view",
      "type": "function"
    },
    {
      "inputs": [
        {
          "internalType": "address",
          "name": "to",
          "type": "address"
        },
        {
          "internalType": "uint256",
          "name": "value",
          "type": "uint256"
        }
      ],
      "name": "transfer",
      "outputs": [
        {
          "internalType": "bool",
          "name": "",
          "type": "bool"
        }
      ],
      "stateMutability": "nonpayable",
      "type": "function"
    },
    {
      "inputs": [
        {
          "internalType": "address",
          "name": "from",
          "type": "address"
        },
        {
          "internalType": "address",
          "name": "to",
          "type": "address"
        },
        {
          "internalType": "uint256",
          "name": "value",
          "type": "uint256"
        }
      ],
      "name": "transferFrom",
      "outputs": [
        {
          "internalType": "bool",
          "name": "",
          "type": "bool"
        }
      ],
      "stateMutability": "nonpayable",
      "type": "function"
    },
    {
      "inputs": [
        {
          "internalType": "address",
          "name": "newOwner",
          "type": "address"
        }
      ],
      "name": "transferOwnership",
      "outputs": [],
      "stateMutability": "nonpayable",
      "type": "function"
    }
  ],
  "bytecode": "0x60806040523480156200001157600080fd5b50336040518060400160405280600781526020017f4c50546f6b656e000000000000000000000000000000000000000000000000008152506040518060400160405280600581526020017f414d4d4c5000000000000000000000000000000000000000000000000000000081525081600390816200009091906200074a565b508060049081620000a291906200074a565b505050600073ffffffffffffffffffffffffffffffffffffffff168173ffffffffffffffffffffffffffffffffffffffff16036200011a5760006040517f1e4fbdf700000000000000000000000000000000000000000000000000000000815260040162000111919062000876565b60405180910390fd5b6200012b816200014d60201b60201c565b506200014733683635c9adc5dea000006200021360201b60201c565b62000968565b6000600560009054906101000a900473ffffffffffffffffffffffffffffffffffffffff16905081600560006101000a81548173ffffffffffffffffffffffffffffffffffffffff021916908373ffffffffffffffffffffffffffffffffffffffff1602179055508173ffffffffffffffffffffffffffffffffffffffff168173ffffffffffffffffffffffffffffffffffffffff167f8be0079c531659141344cd1fd0a4f28419497f9722a3daafe3b4186f6b6457e060405160405180910390a35050565b600073ffffffffffffffffffffffffffffffffffffffff168273ffffffffffffffffffffffffffffffffffffffff1603620002885760006040517fec442f050000000000000000000000000000000000000000000000000000000081526004016200027f919062000876565b60405180910390fd5b6200029c60008383620002a060201b60201c565b5050565b600073ffffffffffffffffffffffffffffffffffffffff168373ffffffffffffffffffffffffffffffffffffffff1603620002f6578060026000828254620002e99190620008c2565b92505081905550620003cc565b60008060008573ffffffffffffffffffffffffffffffffffffffff1673ffffffffffffffffffffffffffffffffffffffff1681526020019081526020016000205490508181101562000385578381836040517fe450d38c0000000000000000000000000000000000000000000000000000000081526004016200037c939291906200090e565b60405180910390fd5b8181036000808673ffffffffffffffffffffffffffffffffffffffff1673ffffffffffffffffffffffffffffffffffffffff16815260200190815260200160002081905550505b600073ffffffffffffffffffffffffffffffffffffffff168273ffffffffffffffffffffffffffffffffffffffff160362000417578060026000828254039250508190555062000464565b806000808473ffffffffffffffffffffffffffffffffffffffff1673ffffffffffffffffffffffffffffffffffffffff168152602001908152602001600020600082825401925050819055505b8173ffffffffffffffffffffffffffffffffffffffff168373ffffffffffffffffffffffffffffffffffffffff167fddf252ad1be2c89b69c2b068fc378daa952ba7f163c4a11628f55a4df523b3ef83604051620004c391906200094b565b60405180910390a3505050565b600081519050919050565b7f4e487b7100000000000000000000000000000000000000000000000000000000600052604160045260246000fd5b7f4e487b7100000000000000000000000000000000000000000000000000000000600052602260045260246000fd5b600060028204905060018216806200055257607f821691505b6020821081036200056857620005676200050a565b5b50919050565b60008190508160005260206000209050919050565b60006020601f8301049050919050565b600082821b905092915050565b600060088302620005d27fffffffffffffffffffffffffffffffffffffffffffffffffffffffffffffffff8262000593565b620005de868362000593565b95508019841693508086168417925050509392505050565b6000819050919050565b6000819050919050565b60006200062b620006256200061f84620005f6565b62000600565b620005f6565b9050919050565b6000819050919050565b62000647836200060a565b6200065f620006568262000632565b848454620005a0565b825550505050565b600090565b6200067662000667565b620006838184846200063c565b505050565b5b81811015620006ab576200069f6000826200066c565b60018101905062000689565b5050565b601f821115620006fa57620006c4816200056e565b620006cf8462000583565b81016020851015620006df578190505b620006f7620006ee8562000583565b83018262000688565b50505b505050565b600082821c905092915050565b60006200071f60001984600802620006ff565b1980831691505092915050565b60006200073a83836200070c565b9150826002028217905092915050565b6200075582620004d0565b67ffffffffffffffff811115620007715762000770620004db565b5b6200077d825462000539565b6200078a828285620006af565b600060209050601f831160018114620007c25760008415620007ad578287015190505b620007b985826200072c565b86555062000829565b601f198416620007d2866200056e565b60005b82811015620007fc57848901518255600182019150602085019450602081019050620007d5565b868310156200081c578489015162000818601f8916826200070c565b8355505b6001600288020188555050505b505050505050565b600073ffffffffffffffffffffffffffffffffffffffff82169050919050565b60006200085e8262000831565b9050919050565b620008708162000851565b82525050565b60006020820190506200088d600083018462000865565b92915050565b7f4e487b7100000000000000000000000000000000000000000000000000000000600052601160045260246000fd5b6000620008cf82620005f6565b9150620008dc83620005f6565b9250828201905080821115620008f757620008f662000893565b5b92915050565b6200090881620005f6565b82525050565b600060608201905062000925600083018662000865565b620009346020830185620008fd565b620009436040830184620008fd565b949350505050565b6000602082019050620009626000830184620008fd565b92915050565b61126a80620009786000396000f3fe608060405234801561001057600080fd5b50600436106100ea5760003560e01c8063715018a61161008c5780639dc29fac116100665780639dc29fac1461023b578063a9059cbb14610257578063dd62ed3e14610287578063f2fde38b146102b7576100ea565b8063715018a6146101f55780638da5cb5b146101ff57806395d89b411461021d576100ea565b806323b872dd116100c857806323b872dd1461015b578063313ce5671461018b57806340c10f19146101a957806370a08231146101c5576100ea565b806306fdde03146100ef578063095ea7b31461010d57806318160ddd1461013d575b600080fd5b6100f76102d3565b6040516101049190610ebe565b60405180910390f35b61012760048036038101906101229190610f79565b610365565b6040516101349190610fd4565b60405180910390f35b610145610388565b6040516101529190610ffe565b60405180910390f35b61017560048036038101906101709190611019565b610392565b6040516101829190610fd4565b60405180910390f35b6101936103c1565b6040516101a09190611088565b60405180910390f35b6101c360048036038101906101be9190610f79565b6103ca565b005b6101df60048036038101906101da91906110a3565b6103e0565b6040516101ec9190610ffe565b60405180910390f35b6101fd610428565b005b61020761043c565b60405161021491906110df565b60405180910390f35b610225610466565b6040516102329190610ebe565b60405180910390f35b61025560048036038101906102509190610f79565b6104f8565b005b610271600480360381019061026c9190610f79565b61050e565b60405161027e9190610fd4565b60405180910390f35b6102a1600480360381019061029c91906110fa565b610531565b6040516102ae9190610ffe565b60405180910390f35b6102d160048036038101906102cc91906110a3565b6105b8565b005b6060600380546102e290611169565b80601f016020809104026020016040519081016040528092919081815260200182805461030e90611169565b801561035b5780601f106103305761010080835404028352916020019161035b565b820191906000526020600020905b81548152906001019060200180831161033e57829003601f168201915b5050505050905090565b60008061037061063e565b905061037d818585610646565b600191505092915050565b6000600254905090565b60008061039d61063e565b90506103aa858285610658565b6103b58585856106ed565b60019150509392505050565b60006012905090565b6103d26107e1565b6103dc8282610868565b5050565b60008060008373ffffffffffffffffffffffffffffffffffffffff1673ffffffffffffffffffffffffffffffffffffffff168152602001908152602001600020549050919050565b6104306107e1565b61043a60006108ea565b565b6000600560009054906101000a900473ffffffffffffffffffffffffffffffffffffffff16905090565b60606004805461047590611169565b80601f01602080910402602001604051908101604052809291908181526020018280546104a190611169565b80156104ee5780601f106104c3576101008083540402835291602001916104ee565b820191906000526020600020905b8154815290600101906020018083116104d157829003601f168201915b5050505050905090565b6105006107e1565b61050a82826109b0565b5050565b60008061051961063e565b90506105268185856106ed565b600191505092915050565b6000600160008473ffffffffffffffffffffffffffffffffffffffff1673ffffffffffffffffffffffffffffffffffffffff16815260200190815260200160002060008373ffffffffffffffffffffffffffffffffffffffff1673ffffffffffffffffffffffffffffffffffffffff16815260200190815260200160002054905092915050565b6105c06107e1565b600073ffffffffffffffffffffffffffffffffffffffff168173ffffffffffffffffffffffffffffffffffffffff16036106325760006040517f1e4fbdf700000000000000000000000000000000000000000000000000000000815260040161062991906110df565b60405180910390fd5b61063b816108ea565b50565b600033905090565b6106538383836001610a32565b505050565b60006106648484610531565b90507fffffffffffffffffffffffffffffffffffffffffffffffffffffffffffffffff8110156106e757818110156106d7578281836040517ffb8f41b20000000000000000000000000000000000000000000000000000000081526004016106ce9392919061119a565b60405180910390fd5b6106e684848484036000610a32565b5b50505050565b600073ffffffffffffffffffffffffffffffffffffffff168373ffffffffffffffffffffffffffffffffffffffff160361075f5760006040517f96c6fd1e00000000000000000000000000000000000000000000000000000000815260040161075691906110df565b60405180910390fd5b600073ffffffffffffffffffffffffffffffffffffffff168273ffffffffffffffffffffffffffffffffffffffff16036107d15760006040517fec442f050000000000000000000000000000000000000000000000000000000081526004016107c891906110df565b60405180910390fd5b6107dc838383610c09565b505050565b6107e961063e565b73ffffffffffffffffffffffffffffffffffffffff1661080761043c565b73ffffffffffffffffffffffffffffffffffffffff16146108665761082a61063e565b6040517f118cdaa700000000000000000000000000000000000000000000000000000000815260040161085d91906110df565b60405180910390fd5b565b600073ffffffffffffffffffffffffffffffffffffffff168273ffffffffffffffffffffffffffffffffffffffff16036108da5760006040517fec442f050000000000000000000000000000000000000000000000000000000081526004016108d191906110df565b60405180910390fd5b6108e660008383610c09565b5050565b6000600560009054906101000a900473ffffffffffffffffffffffffffffffffffffffff16905081600560006101000a81548173ffffffffffffffffffffffffffffffffffffffff021916908373ffffffffffffffffffffffffffffffffffffffff1602179055508173ffffffffffffffffffffffffffffffffffffffff168173ffffffffffffffffffffffffffffffffffffffff167f8be0079c531659141344cd1fd0a4f28419497f9722a3daafe3b4186f6b6457e060405160405180910390a35050565b600073ffffffffffffffffffffffffffffffffffffffff168273ffffffffffffffffffffffffffffffffffffffff1603610a225760006040517f96c6fd1e000000000000000000000000000000000000000000000000000000008152600401610a1991906110df565b60405180910390fd5b610a2e82600083610c09565b5050565b600073ffffffffffffffffffffffffffffffffffffffff168473ffffffffffffffffffffffffffffffffffffffff1603610aa45760006040517fe602df05000000000000000000000000000000000000000000000000000000008152600401610a9b91906110df565b60405180910390fd5b600073ffffffffffffffffffffffffffffffffffffffff168373ffffffffffffffffffffffffffffffffffffffff1603610b165760006040517f94280d62000000000000000000000000000000000000000000000000000000008152600401610b0d91906110df565b60405180910390fd5b81600160008673ffffffffffffffffffffffffffffffffffffffff1673ffffffffffffffffffffffffffffffffffffffff16815260200190815260200160002060008573ffffffffffffffffffffffffffffffffffffffff1673ffffffffffffffffffffffffffffffffffffffff168152602001908152602001600020819055508015610c03578273ffffffffffffffffffffffffffffffffffffffff168473ffffffffffffffffffffffffffffffffffffffff167f8c5be1e5ebec7d5bd14f71427d1e84f3dd0314c0f7b2291e5b200ac8c7c3b92584604051610bfa9190610ffe565b60405180910390a35b50505050565b600073ffffffffffffffffffffffffffffffffffffffff168373ffffffffffffffffffffffffffffffffffffffff1603610c5b578060026000828254610c4f9190611200565b92505081905550610d2e565b60008060008573ffffffffffffffffffffffffffffffffffffffff1673ffffffffffffffffffffffffffffffffffffffff16815260200190815260200160002054905081811015610ce7578381836040517fe450d38c000000000000000000000000000000000000000000000000000000008152600401610cde9392919061119a565b60405180910390fd5b8181036000808673ffffffffffffffffffffffffffffffffffffffff1673ffffffffffffffffffffffffffffffffffffffff16815260200190815260200160002081905550505b600073ffffffffffffffffffffffffffffffffffffffff168273ffffffffffffffffffffffffffffffffffffffff1603610d775780600260008282540392505081905550610dc4565b806000808473ffffffffffffffffffffffffffffffffffffffff1673ffffffffffffffffffffffffffffffffffffffff168152602001908152602001600020600082825401925050819055505b8173ffffffffffffffffffffffffffffffffffffffff168373ffffffffffffffffffffffffffffffffffffffff167fddf252ad1be2c89b69c2b068fc378daa952ba7f163c4a11628f55a4df523b3ef83604051610e219190610ffe565b60405180910390a3505050565b600081519050919050565b600082825260208201905092915050565b60005b83811015610e68578082015181840152602081019050610e4d565b60008484015250505050565b6000601f19601f8301169050919050565b6000610e9082610e2e565b610e9a8185610e39565b9350610eaa818560208601610e4a565b610eb381610e74565b840191505092915050565b60006020820190508181036000830152610ed88184610e85565b905092915050565b600080fd5b600073ffffffffffffffffffffffffffffffffffffffff82169050919050565b6000610f1082610ee5565b9050919050565b610f2081610f05565b8114610f2b57600080fd5b50565b600081359050610f3d81610f17565b92915050565b6000819050919050565b610f5681610f43565b8114610f6157600080fd5b50565b600081359050610f7381610f4d565b92915050565b60008060408385031215610f9057610f8f610ee0565b5b6000610f9e85828601610f2e565b9250506020610faf85828601610f64565b9150509250929050565b60008115159050919050565b610fce81610fb9565b82525050565b6000602082019050610fe96000830184610fc5565b92915050565b610ff881610f43565b82525050565b60006020820190506110136000830184610fef565b92915050565b60008060006060848603121561103257611031610ee0565b5b600061104086828701610f2e565b935050602061105186828701610f2e565b925050604061106286828701610f64565b9150509250925092565b600060ff82169050919050565b6110828161106c565b82525050565b600060208201905061109d6000830184611079565b92915050565b6000602082840312156110b9576110b8610ee0565b5b60006110c784828501610f2e565b91505092915050565b6110d981610f05565b82525050565b60006020820190506110f460008301846110d0565b92915050565b6000806040838503121561111157611110610ee0565b5b600061111f85828601610f2e565b925050602061113085828601610f2e565b9150509250929050565b7f4e487b7100000000000000000000000000000000000000000000000000000000600052602260045260246000fd5b6000600282049050600182168061118157607f821691505b6020821081036111945761119361113a565b5b50919050565b60006060820190506111af60008301866110d0565b6111bc6020830185610fef565b6111c96040830184610fef565b949350505050565b7f4e487b7100000000000000000000000000000000000000000000000000000000600052601160045260246000fd5b600061120b82610f43565b915061121683610f43565b925082820190508082111561122e5761122d6111d1565b5b9291505056fea26469706673582212205c948caa6db00660b135c0cce48fa60c0038b6b9b393e911587446e98fedaecd64736f6c63430008140033",
  "linkReferences": {},
  "deployedLinkReferences": {}
}