{
  "_format": "hh-sol-artifact-1",
  "contractName": "TokenB",
  "sourceName": "contracts/TokenB.sol",
  "abi": [
    {
      "inputs": [
        {
          "internalType": "address",
          "name": "initialOwner",
          "type": "address"
        }
      ],
      "stateMutability": "nonpayable",
      "type": "constructor"
    },
    {
      "inputs": [
        {
          "internalType": "address",
          "name": "spender",
          "type": "address"
        },
        {
          "internalType": "uint256",
          "name": "allowance",
          "type": "uint256"
        },
        {
          "internalType": "uint256",
          "name": "needed",
          "type": "uint256"
        }
      ],
      "name": "ERC20InsufficientAllowance",
      "type": "error"
    },
    {
      "inputs": [
        {
          "internalType": "address",
          "name": "sender",
          "type": "address"
        },
        {
          "internalType": "uint256",
          "name": "balance",
          "type": "uint256"
        },
        {
          "internalType": "uint256",
          "name": "needed",
          "type": "uint256"
        }
      ],
      "name": "ERC20InsufficientBalance",
      "type": "error"
    },
    {
      "inputs": [
        {
          "internalType": "address",
          "name": "approver",
          "type": "address"
        }
      ],
      "name": "ERC20InvalidApprover",
      "type": "error"
    },
    {
      "inputs": [
        {
          "internalType": "address",
          "name": "receiver",
          "type": "address"
        }
      ],
      "name": "ERC20InvalidReceiver",
      "type": "error"
    },
    {
      "inputs": [
        {
          "internalType": "address",
          "name": "sender",
          "type": "address"
        }
      ],
      "name": "ERC20InvalidSender",
      "type": "error"
    },
    {
      "inputs": [
        {
          "internalType": "address",
          "name": "spender",
          "type": "address"
        }
      ],
      "name": "ERC20InvalidSpender",
      "type": "error"
    },
    {
      "inputs": [],
      "name": "EnforcedPause",
      "type": "error"
    },
    {
      "inputs": [],
      "name": "ExpectedPause",
      "type": "error"
    },
    {
      "inputs": [
        {
          "internalType": "address",
          "name": "owner",
          "type": "address"
        }
      ],
      "name": "OwnableInvalidOwner",
      "type": "error"
    },
    {
      "inputs": [
        {
          "internalType": "address",
          "name": "account",
          "type": "address"
        }
      ],
      "name": "OwnableUnauthorizedAccount",
      "type": "error"
    },
    {
      "anonymous": false,
      "inputs": [
        {
          "indexed": true,
          "internalType": "address",
          "name": "owner",
          "type": "address"
        },
        {
          "indexed": true,
          "internalType": "address",
          "name": "spender",
          "type": "address"
        },
        {
          "indexed": false,
          "internalType": "uint256",
          "name": "value",
          "type": "uint256"
        }
      ],
      "name": "Approval",
      "type": "event"
    },
    {
      "anonymous": false,
      "inputs": [
        {
          "indexed": true,
          "internalType": "address",
          "name": "previousOwner",
          "type": "address"
        },
        {
          "indexed": true,
          "internalType": "address",
          "name": "newOwner",
          "type": "address"
        }
      ],
      "name": "OwnershipTransferred",
      "type": "event"
    },
    {
      "anonymous": false,
      "inputs": [
        {
          "indexed": false,
          "internalType": "address",
          "name": "account",
          "type": "address"
        }
      ],
      "name": "Paused",
      "type": "event"
    },
    {
      "anonymous": false,
      "inputs": [
        {
          "indexed": true,
          "internalType": "address",
          "name": "from",
          "type": "address"
        },
        {
          "indexed": true,
          "internalType": "address",
          "name": "to",
          "type": "address"
        },
        {
          "indexed": false,
          "internalType": "uint256",
          "name": "value",
          "type": "uint256"
        }
      ],
      "name": "Transfer",
      "type": "event"
    },
    {
      "anonymous": false,
      "inputs": [
        {
          "indexed": false,
          "internalType": "address",
          "name": "account",
          "type": "address"
        }
      ],
      "name": "Unpaused",
      "type": "event"
    },
    {
      "inputs": [
        {
          "internalType": "address",
          "name": "owner",
          "type": "address"
        },
        {
          "internalType": "address",
          "name": "spender",
          "type": "address"
        }
      ],
      "name": "allowance",
      "outputs": [
        {
          "internalType": "uint256",
          "name": "",
          "type": "uint256"
        }
      ],
      "stateMutability": "view",
      "type": "function"
    },
    {
      "inputs": [
        {
          "internalType": "address",
          "name": "spender",
          "type": "address"
        },
        {
          "internalType": "uint256",
          "name": "value",
          "type": "uint256"
        }
      ],
      "name": "approve",
      "outputs": [
        {
          "internalType": "bool",
          "name": "",
          "type": "bool"
        }
      ],
      "stateMutability": "nonpayable",
      "type": "function"
    },
    {
      "inputs": [
        {
          "internalType": "address",
          "name": "account",
          "type": "address"
        }
      ],
      "name": "balanceOf",
      "outputs": [
        {
          "internalType": "uint256",
          "name": "",
          "type": "uint256"
        }
      ],
      "stateMutability": "view",
      "type": "function"
    },
    {
      "inputs": [],
      "name": "decimals",
      "outputs": [
        {
          "internalType": "uint8",
          "name": "",
          "type": "uint8"
        }
      ],
      "stateMutability": "view",
      "type": "function"
    },
    {
      "inputs": [
        {
          "internalType": "address",
          "name": "to",
          "type": "address"
        },
        {
          "internalType": "uint256",
          "name": "amount",
          "type": "uint256"
        }
      ],
      "name": "mint",
      "outputs": [],
      "stateMutability": "nonpayable",
      "type": "function"
    },
    {
      "inputs": [
        {
          "internalType": "address",
          "name": "to",
          "type": "address"
        },
        {
          "internalType": "uint256",
          "name": "amount",
          "type": "uint256"
        }
      ],
      "name": "mintForUserSimulation",
      "outputs": [],
      "stateMutability": "nonpayable",
      "type": "function"
    },
    {
      "inputs": [],
      "name": "name",
      "outputs": [
        {
          "internalType": "string",
          "name": "",
          "type": "string"
        }
      ],
      "stateMutability": "view",
      "type": "function"
    },
    {
      "inputs": [],
      "name": "owner",
      "outputs": [
        {
          "internalType": "address",
          "name": "",
          "type": "address"
        }
      ],
      "stateMutability": "view",
      "type": "function"
    },
    {
      "inputs": [],
      "name": "pause",
      "outputs": [],
      "stateMutability": "nonpayable",
      "type": "function"
    },
    {
      "inputs": [],
      "name": "paused",
      "outputs": [
        {
          "internalType": "bool",
          "name": "",
          "type": "bool"
        }
      ],
      "stateMutability": "view",
      "type": "function"
    },
    {
      "inputs": [],
      "name": "renounceOwnership",
      "outputs": [],
      "stateMutability": "nonpayable",
      "type": "function"
    },
    {
      "inputs": [],
      "name": "symbol",
      "outputs": [
        {
          "internalType": "string",
          "name": "",
          "type": "string"
        }
      ],
      "stateMutability": "view",
      "type": "function"
    },
    {
      "inputs": [],
      "name": "totalSupply",
      "outputs": [
        {
          "internalType": "uint256",
          "name": "",
          "type": "uint256"
        }
      ],
      "stateMutability": "view",
      "type": "function"
    },
    {
      "inputs": [
        {
          "internalType": "address",
          "name": "to",
          "type": "address"
        },
        {
          "internalType": "uint256",
          "name": "value",
          "type": "uint256"
        }
      ],
      "name": "transfer",
      "outputs": [
        {
          "internalType": "bool",
          "name": "",
          "type": "bool"
        }
      ],
      "stateMutability": "nonpayable",
      "type": "function"
    },
    {
      "inputs": [
        {
          "internalType": "address",
          "name": "from",
          "type": "address"
        },
        {
          "internalType": "address",
          "name": "to",
          "type": "address"
        },
        {
          "internalType": "uint256",
          "name": "value",
          "type": "uint256"
        }
      ],
      "name": "transferFrom",
      "outputs": [
        {
          "internalType": "bool",
          "name": "",
          "type": "bool"
        }
      ],
      "stateMutability": "nonpayable",
      "type": "function"
    },
    {
      "inputs": [
        {
          "internalType": "address",
          "name": "newOwner",
          "type": "address"
        }
      ],
      "name": "transferOwnership",
      "outputs": [],
      "stateMutability": "nonpayable",
      "type": "function"
    },
    {
      "inputs": [],
      "name": "unpause",
      "outputs": [],
      "stateMutability": "nonpayable",
      "type": "function"
    }
  ],
  "bytecode": "0x6080604052683635c9adc5dea000006006553480156200001e57600080fd5b5060405162001e8a38038062001e8a833981810160405281019062000044919062000607565b806040518060400160405280600681526020017f546f6b656e4200000000000000000000000000000000000000000000000000008152506040518060400160405280600481526020017f4d544b42000000000000000000000000000000000000000000000000000000008152508160039081620000c29190620008b3565b508060049081620000d49190620008b3565b505050600073ffffffffffffffffffffffffffffffffffffffff168173ffffffffffffffffffffffffffffffffffffffff16036200014c5760006040517f1e4fbdf7000000000000000000000000000000000000000000000000000000008152600401620001439190620009ab565b60405180910390fd5b6200015d816200017960201b60201c565b5062000172336006546200023f60201b60201c565b5062000a9d565b6000600560019054906101000a900473ffffffffffffffffffffffffffffffffffffffff16905081600560016101000a81548173ffffffffffffffffffffffffffffffffffffffff021916908373ffffffffffffffffffffffffffffffffffffffff1602179055508173ffffffffffffffffffffffffffffffffffffffff168173ffffffffffffffffffffffffffffffffffffffff167f8be0079c531659141344cd1fd0a4f28419497f9722a3daafe3b4186f6b6457e060405160405180910390a35050565b600073ffffffffffffffffffffffffffffffffffffffff168273ffffffffffffffffffffffffffffffffffffffff1603620002b45760006040517fec442f05000000000000000000000000000000000000000000000000000000008152600401620002ab9190620009ab565b60405180910390fd5b620002c860008383620002cc60201b60201c565b5050565b620002df838383620002e460201b60201c565b505050565b620002f46200030c60201b60201c565b620003078383836200035660201b60201c565b505050565b6200031c6200058660201b60201c565b1562000354576040517fd93c066500000000000000000000000000000000000000000000000000000000815260040160405180910390fd5b565b600073ffffffffffffffffffffffffffffffffffffffff168373ffffffffffffffffffffffffffffffffffffffff1603620003ac5780600260008282546200039f9190620009f7565b9250508190555062000482565b60008060008573ffffffffffffffffffffffffffffffffffffffff1673ffffffffffffffffffffffffffffffffffffffff168152602001908152602001600020549050818110156200043b578381836040517fe450d38c000000000000000000000000000000000000000000000000000000008152600401620004329392919062000a43565b60405180910390fd5b8181036000808673ffffffffffffffffffffffffffffffffffffffff1673ffffffffffffffffffffffffffffffffffffffff16815260200190815260200160002081905550505b600073ffffffffffffffffffffffffffffffffffffffff168273ffffffffffffffffffffffffffffffffffffffff1603620004cd57806002600082825403925050819055506200051a565b806000808473ffffffffffffffffffffffffffffffffffffffff1673ffffffffffffffffffffffffffffffffffffffff168152602001908152602001600020600082825401925050819055505b8173ffffffffffffffffffffffffffffffffffffffff168373ffffffffffffffffffffffffffffffffffffffff167fddf252ad1be2c89b69c2b068fc378daa952ba7f163c4a11628f55a4df523b3ef8360405162000579919062000a80565b60405180910390a3505050565b6000600560009054906101000a900460ff16905090565b600080fd5b600073ffffffffffffffffffffffffffffffffffffffff82169050919050565b6000620005cf82620005a2565b9050919050565b620005e181620005c2565b8114620005ed57600080fd5b50565b6000815190506200060181620005d6565b92915050565b60006020828403121562000620576200061f6200059d565b5b60006200063084828501620005f0565b91505092915050565b600081519050919050565b7f4e487b7100000000000000000000000000000000000000000000000000000000600052604160045260246000fd5b7f4e487b7100000000000000000000000000000000000000000000000000000000600052602260045260246000fd5b60006002820490506001821680620006bb57607f821691505b602082108103620006d157620006d062000673565b5b50919050565b60008190508160005260206000209050919050565b60006020601f8301049050919050565b600082821b905092915050565b6000600883026200073b7fffffffffffffffffffffffffffffffffffffffffffffffffffffffffffffffff82620006fc565b620007478683620006fc565b95508019841693508086168417925050509392505050565b6000819050919050565b6000819050919050565b6000620007946200078e62000788846200075f565b62000769565b6200075f565b9050919050565b6000819050919050565b620007b08362000773565b620007c8620007bf826200079b565b84845462000709565b825550505050565b600090565b620007df620007d0565b620007ec818484620007a5565b505050565b5b81811015620008145762000808600082620007d5565b600181019050620007f2565b5050565b601f82111562000863576200082d81620006d7565b6200083884620006ec565b8101602085101562000848578190505b620008606200085785620006ec565b830182620007f1565b50505b505050565b600082821c905092915050565b6000620008886000198460080262000868565b1980831691505092915050565b6000620008a3838362000875565b9150826002028217905092915050565b620008be8262000639565b67ffffffffffffffff811115620008da57620008d962000644565b5b620008e68254620006a2565b620008f382828562000818565b600060209050601f8311600181146200092b576000841562000916578287015190505b62000922858262000895565b86555062000992565b601f1984166200093b86620006d7565b60005b8281101562000965578489015182556001820191506020850194506020810190506200093e565b8683101562000985578489015162000981601f89168262000875565b8355505b6001600288020188555050505b505050505050565b620009a581620005c2565b82525050565b6000602082019050620009c260008301846200099a565b92915050565b7f4e487b7100000000000000000000000000000000000000000000000000000000600052601160045260246000fd5b600062000a04826200075f565b915062000a11836200075f565b925082820190508082111562000a2c5762000a2b620009c8565b5b92915050565b62000a3d816200075f565b82525050565b600060608201905062000a5a60008301866200099a565b62000a69602083018562000a32565b62000a78604083018462000a32565b949350505050565b600060208201905062000a97600083018462000a32565b92915050565b6113dd8062000aad6000396000f3fe608060405234801561001057600080fd5b506004361061010b5760003560e01c806370a08231116100a257806395d89b411161007157806395d89b4114610270578063a9059cbb1461028e578063b80b1ff3146102be578063dd62ed3e146102da578063f2fde38b1461030a5761010b565b806370a082311461020e578063715018a61461023e5780638456cb59146102485780638da5cb5b146102525761010b565b8063313ce567116100de578063313ce567146101ac5780633f4ba83a146101ca57806340c10f19146101d45780635c975abb146101f05761010b565b806306fdde0314610110578063095ea7b31461012e57806318160ddd1461015e57806323b872dd1461017c575b600080fd5b610118610326565b6040516101259190611031565b60405180910390f35b610148600480360381019061014391906110ec565b6103b8565b6040516101559190611147565b60405180910390f35b6101666103db565b6040516101739190611171565b60405180910390f35b6101966004803603810190610191919061118c565b6103e5565b6040516101a39190611147565b60405180910390f35b6101b4610414565b6040516101c191906111fb565b60405180910390f35b6101d261041d565b005b6101ee60048036038101906101e991906110ec565b61042f565b005b6101f8610445565b6040516102059190611147565b60405180910390f35b61022860048036038101906102239190611216565b61045c565b6040516102359190611171565b60405180910390f35b6102466104a4565b005b6102506104b8565b005b61025a6104ca565b6040516102679190611252565b60405180910390f35b6102786104f4565b6040516102859190611031565b60405180910390f35b6102a860048036038101906102a391906110ec565b610586565b6040516102b59190611147565b60405180910390f35b6102d860048036038101906102d391906110ec565b6105a9565b005b6102f460048036038101906102ef919061126d565b6105b7565b6040516103019190611171565b60405180910390f35b610324600480360381019061031f9190611216565b61063e565b005b606060038054610335906112dc565b80601f0160208091040260200160405190810160405280929190818152602001828054610361906112dc565b80156103ae5780601f10610383576101008083540402835291602001916103ae565b820191906000526020600020905b81548152906001019060200180831161039157829003601f168201915b5050505050905090565b6000806103c36106c4565b90506103d08185856106cc565b600191505092915050565b6000600254905090565b6000806103f06106c4565b90506103fd8582856106de565b610408858585610773565b60019150509392505050565b60006012905090565b610425610867565b61042d6108ee565b565b610437610867565b6104418282610951565b5050565b6000600560009054906101000a900460ff16905090565b60008060008373ffffffffffffffffffffffffffffffffffffffff1673ffffffffffffffffffffffffffffffffffffffff168152602001908152602001600020549050919050565b6104ac610867565b6104b660006109d3565b565b6104c0610867565b6104c8610a99565b565b6000600560019054906101000a900473ffffffffffffffffffffffffffffffffffffffff16905090565b606060048054610503906112dc565b80601f016020809104026020016040519081016040528092919081815260200182805461052f906112dc565b801561057c5780601f106105515761010080835404028352916020019161057c565b820191906000526020600020905b81548152906001019060200180831161055f57829003601f168201915b5050505050905090565b6000806105916106c4565b905061059e818585610773565b600191505092915050565b6105b38282610951565b5050565b6000600160008473ffffffffffffffffffffffffffffffffffffffff1673ffffffffffffffffffffffffffffffffffffffff16815260200190815260200160002060008373ffffffffffffffffffffffffffffffffffffffff1673ffffffffffffffffffffffffffffffffffffffff16815260200190815260200160002054905092915050565b610646610867565b600073ffffffffffffffffffffffffffffffffffffffff168173ffffffffffffffffffffffffffffffffffffffff16036106b85760006040517f1e4fbdf70000000000000000000000000000000000000000000000000000000081526004016106af9190611252565b60405180910390fd5b6106c1816109d3565b50565b600033905090565b6106d98383836001610afc565b505050565b60006106ea84846105b7565b90507fffffffffffffffffffffffffffffffffffffffffffffffffffffffffffffffff81101561076d578181101561075d578281836040517ffb8f41b20000000000000000000000000000000000000000000000000000000081526004016107549392919061130d565b60405180910390fd5b61076c84848484036000610afc565b5b50505050565b600073ffffffffffffffffffffffffffffffffffffffff168373ffffffffffffffffffffffffffffffffffffffff16036107e55760006040517f96c6fd1e0000000000000000000000000000000000000000000000000000000081526004016107dc9190611252565b60405180910390fd5b600073ffffffffffffffffffffffffffffffffffffffff168273ffffffffffffffffffffffffffffffffffffffff16036108575760006040517fec442f0500000000000000000000000000000000000000000000000000000000815260040161084e9190611252565b60405180910390fd5b610862838383610cd3565b505050565b61086f6106c4565b73ffffffffffffffffffffffffffffffffffffffff1661088d6104ca565b73ffffffffffffffffffffffffffffffffffffffff16146108ec576108b06106c4565b6040517f118cdaa70000000000000000000000000000000000000000000000000000000081526004016108e39190611252565b60405180910390fd5b565b6108f6610ce3565b6000600560006101000a81548160ff0219169083151502179055507f5db9ee0a495bf2e6ff9c91a7834c1ba4fdd244a5e8aa4e537bd38aeae4b073aa61093a6106c4565b6040516109479190611252565b60405180910390a1565b600073ffffffffffffffffffffffffffffffffffffffff168273ffffffffffffffffffffffffffffffffffffffff16036109c35760006040517fec442f050000000000000000000000000000000000000000000000000000000081526004016109ba9190611252565b60405180910390fd5b6109cf60008383610cd3565b5050565b6000600560019054906101000a900473ffffffffffffffffffffffffffffffffffffffff16905081600560016101000a81548173ffffffffffffffffffffffffffffffffffffffff021916908373ffffffffffffffffffffffffffffffffffffffff1602179055508173ffffffffffffffffffffffffffffffffffffffff168173ffffffffffffffffffffffffffffffffffffffff167f8be0079c531659141344cd1fd0a4f28419497f9722a3daafe3b4186f6b6457e060405160405180910390a35050565b610aa1610d23565b6001600560006101000a81548160ff0219169083151502179055507f62e78cea01bee320cd4e420270b5ea74000d11b0c9f74754ebdbfc544b05a258610ae56106c4565b604051610af29190611252565b60405180910390a1565b600073ffffffffffffffffffffffffffffffffffffffff168473ffffffffffffffffffffffffffffffffffffffff1603610b6e5760006040517fe602df05000000000000000000000000000000000000000000000000000000008152600401610b659190611252565b60405180910390fd5b600073ffffffffffffffffffffffffffffffffffffffff168373ffffffffffffffffffffffffffffffffffffffff1603610be05760006040517f94280d62000000000000000000000000000000000000000000000000000000008152600401610bd79190611252565b60405180910390fd5b81600160008673ffffffffffffffffffffffffffffffffffffffff1673ffffffffffffffffffffffffffffffffffffffff16815260200190815260200160002060008573ffffffffffffffffffffffffffffffffffffffff1673ffffffffffffffffffffffffffffffffffffffff168152602001908152602001600020819055508015610ccd578273ffffffffffffffffffffffffffffffffffffffff168473ffffffffffffffffffffffffffffffffffffffff167f8c5be1e5ebec7d5bd14f71427d1e84f3dd0314c0f7b2291e5b200ac8c7c3b92584604051610cc49190611171565b60405180910390a35b50505050565b610cde838383610d64565b505050565b610ceb610445565b610d21576040517f8dfc202b00000000000000000000000000000000000000000000000000000000815260040160405180910390fd5b565b610d2b610445565b15610d62576040517fd93c066500000000000000000000000000000000000000000000000000000000815260040160405180910390fd5b565b610d6c610d23565b610d77838383610d7c565b505050565b600073ffffffffffffffffffffffffffffffffffffffff168373ffffffffffffffffffffffffffffffffffffffff1603610dce578060026000828254610dc29190611373565b92505081905550610ea1565b60008060008573ffffffffffffffffffffffffffffffffffffffff1673ffffffffffffffffffffffffffffffffffffffff16815260200190815260200160002054905081811015610e5a578381836040517fe450d38c000000000000000000000000000000000000000000000000000000008152600401610e519392919061130d565b60405180910390fd5b8181036000808673ffffffffffffffffffffffffffffffffffffffff1673ffffffffffffffffffffffffffffffffffffffff16815260200190815260200160002081905550505b600073ffffffffffffffffffffffffffffffffffffffff168273ffffffffffffffffffffffffffffffffffffffff1603610eea5780600260008282540392505081905550610f37565b806000808473ffffffffffffffffffffffffffffffffffffffff1673ffffffffffffffffffffffffffffffffffffffff168152602001908152602001600020600082825401925050819055505b8173ffffffffffffffffffffffffffffffffffffffff168373ffffffffffffffffffffffffffffffffffffffff167fddf252ad1be2c89b69c2b068fc378daa952ba7f163c4a11628f55a4df523b3ef83604051610f949190611171565b60405180910390a3505050565b600081519050919050565b600082825260208201905092915050565b60005b83811015610fdb578082015181840152602081019050610fc0565b60008484015250505050565b6000601f19601f8301169050919050565b600061100382610fa1565b61100d8185610fac565b935061101d818560208601610fbd565b61102681610fe7565b840191505092915050565b6000602082019050818103600083015261104b8184610ff8565b905092915050565b600080fd5b600073ffffffffffffffffffffffffffffffffffffffff82169050919050565b600061108382611058565b9050919050565b61109381611078565b811461109e57600080fd5b50565b6000813590506110b08161108a565b92915050565b6000819050919050565b6110c9816110b6565b81146110d457600080fd5b50565b6000813590506110e6816110c0565b92915050565b6000806040838503121561110357611102611053565b5b6000611111858286016110a1565b9250506020611122858286016110d7565b9150509250929050565b60008115159050919050565b6111418161112c565b82525050565b600060208201905061115c6000830184611138565b92915050565b61116b816110b6565b82525050565b60006020820190506111866000830184611162565b92915050565b6000806000606084860312156111a5576111a4611053565b5b60006111b3868287016110a1565b93505060206111c4868287016110a1565b92505060406111d5868287016110d7565b9150509250925092565b600060ff82169050919050565b6111f5816111df565b82525050565b600060208201905061121060008301846111ec565b92915050565b60006020828403121561122c5761122b611053565b5b600061123a848285016110a1565b91505092915050565b61124c81611078565b82525050565b60006020820190506112676000830184611243565b92915050565b6000806040838503121561128457611283611053565b5b6000611292858286016110a1565b92505060206112a3858286016110a1565b9150509250929050565b7f4e487b7100000000000000000000000000000000000000000000000000000000600052602260045260246000fd5b600060028204905060018216806112f457607f821691505b602082108103611307576113066112ad565b5b50919050565b60006060820190506113226000830186611243565b61132f6020830185611162565b61133c6040830184611162565b949350505050565b7f4e487b7100000000000000000000000000000000000000000000000000000000600052601160045260246000fd5b600061137e826110b6565b9150611389836110b6565b92508282019050808211156113a1576113a0611344565b5b9291505056fea2646970667358221220f0e8b5a359960a0fd09ccd094ccd3a48b97650f746dfbbeb9e660b5e1ddd4eba64736f6c63430008140033",
  "linkReferences": {},
  "deployedLinkReferences": {}
}