{
  "_format": "hh-sol-artifact-1",
  "contractName": "MonadAMM",
  "sourceName": "contracts/MonadAMM.sol",
  "abi": [
    {
      "inputs": [
        {
          "internalType": "address",
          "name": "_tokenA",
          "type": "address"
        },
        {
          "internalType": "address",
          "name": "_tokenB",
          "type": "address"
        }
      ],
      "stateMutability": "nonpayable",
      "type": "constructor"
    },
    {
      "inputs": [
        {
          "internalType": "address",
          "name": "owner",
          "type": "address"
        }
      ],
      "name": "OwnableInvalidOwner",
      "type": "error"
    },
    {
      "inputs": [
        {
          "internalType": "address",
          "name": "account",
          "type": "address"
        }
      ],
      "name": "OwnableUnauthorizedAccount",
      "type": "error"
    },
    {
      "anonymous": false,
      "inputs": [
        {
          "indexed": true,
          "internalType": "address",
          "name": "provider",
          "type": "address"
        },
        {
          "indexed": false,
          "internalType": "uint256",
          "name": "amountA",
          "type": "uint256"
        },
        {
          "indexed": false,
          "internalType": "uint256",
          "name": "amountB",
          "type": "uint256"
        },
        {
          "indexed": false,
          "internalType": "uint256",
          "name": "lpMinted",
          "type": "uint256"
        }
      ],
      "name": "AddLiquidity",
      "type": "event"
    },
    {
      "anonymous": false,
      "inputs": [
        {
          "indexed": false,
          "internalType": "uint256",
          "name": "newFeeBps",
          "type": "uint256"
        }
      ],
      "name": "CharityFeeChanged",
      "type": "event"
    },
    {
      "anonymous": false,
      "inputs": [
        {
          "indexed": true,
          "internalType": "address",
          "name": "newRecipient",
          "type": "address"
        }
      ],
      "name": "CharityRecipientChanged",
      "type": "event"
    },
    {
      "anonymous": false,
      "inputs": [
        {
          "indexed": true,
          "internalType": "address",
          "name": "provider",
          "type": "address"
        },
        {
          "indexed": false,
          "internalType": "uint256",
          "name": "badgeTokenId",
          "type": "uint256"
        }
      ],
      "name": "LPBadgeMinted",
      "type": "event"
    },
    {
      "anonymous": false,
      "inputs": [
        {
          "indexed": true,
          "internalType": "address",
          "name": "previousOwner",
          "type": "address"
        },
        {
          "indexed": true,
          "internalType": "address",
          "name": "newOwner",
          "type": "address"
        }
      ],
      "name": "OwnershipTransferred",
      "type": "event"
    },
    {
      "anonymous": false,
      "inputs": [
        {
          "indexed": true,
          "internalType": "address",
          "name": "provider",
          "type": "address"
        },
        {
          "indexed": false,
          "internalType": "uint256",
          "name": "amountA",
          "type": "uint256"
        },
        {
          "indexed": false,
          "internalType": "uint256",
          "name": "amountB",
          "type": "uint256"
        },
        {
          "indexed": false,
          "internalType": "uint256",
          "name": "lpBurned",
          "type": "uint256"
        }
      ],
      "name": "RemoveLiquidity",
      "type": "event"
    },
    {
      "anonymous": false,
      "inputs": [
        {
          "indexed": true,
          "internalType": "address",
          "name": "swapper",
          "type": "address"
        },
        {
          "indexed": true,
          "internalType": "address",
          "name": "tokenIn",
          "type": "address"
        },
        {
          "indexed": false,
          "internalType": "uint256",
          "name": "amountIn",
          "type": "uint256"
        },
        {
          "indexed": true,
          "internalType": "address",
          "name": "tokenOut",
          "type": "address"
        },
        {
          "indexed": false,
          "internalType": "uint256",
          "name": "amountOut",
          "type": "uint256"
        }
      ],
      "name": "Swap",
      "type": "event"
    },
    {
      "inputs": [],
      "name": "BASIS_POINTS_MAX",
      "outputs": [
        {
          "internalType": "uint256",
          "name": "",
          "type": "uint256"
        }
      ],
      "stateMutability": "view",
      "type": "function"
    },
    {
      "inputs": [],
      "name": "FEE_BPS",
      "outputs": [
        {
          "internalType": "uint256",
          "name": "",
          "type": "uint256"
        }
      ],
      "stateMutability": "view",
      "type": "function"
    },
    {
      "inputs": [],
      "name": "LP_BADGE_METADATA_URI",
      "outputs": [
        {
          "internalType": "string",
          "name": "",
          "type": "string"
        }
      ],
      "stateMutability": "view",
      "type": "function"
    },
    {
      "inputs": [],
      "name": "LP_BADGE_THRESHOLD",
      "outputs": [
        {
          "internalType": "uint256",
          "name": "",
          "type": "uint256"
        }
      ],
      "stateMutability": "view",
      "type": "function"
    },
    {
      "inputs": [
        {
          "internalType": "uint256",
          "name": "amountADesired",
          "type": "uint256"
        },
        {
          "internalType": "uint256",
          "name": "amountBDesired",
          "type": "uint256"
        },
        {
          "internalType": "uint256",
          "name": "amountAMin",
          "type": "uint256"
        },
        {
          "internalType": "uint256",
          "name": "amountBMin",
          "type": "uint256"
        }
      ],
      "name": "addLiquidity",
      "outputs": [
        {
          "internalType": "uint256",
          "name": "lpMintedAmount",
          "type": "uint256"
        }
      ],
      "stateMutability": "payable",
      "type": "function"
    },
    {
      "inputs": [],
      "name": "charityFeeBps",
      "outputs": [
        {
          "internalType": "uint256",
          "name": "",
          "type": "uint256"
        }
      ],
      "stateMutability": "view",
      "type": "function"
    },
    {
      "inputs": [],
      "name": "charityRecipient",
      "outputs": [
        {
          "internalType": "address",
          "name": "",
          "type": "address"
        }
      ],
      "stateMutability": "view",
      "type": "function"
    },
    {
      "inputs": [
        {
          "internalType": "uint256",
          "name": "amountIn",
          "type": "uint256"
        },
        {
          "internalType": "address",
          "name": "tokenIn",
          "type": "address"
        }
      ],
      "name": "getAmountOut",
      "outputs": [
        {
          "internalType": "uint256",
          "name": "amountOut",
          "type": "uint256"
        }
      ],
      "stateMutability": "view",
      "type": "function"
    },
    {
      "inputs": [],
      "name": "getLPSupply",
      "outputs": [
        {
          "internalType": "uint256",
          "name": "",
          "type": "uint256"
        }
      ],
      "stateMutability": "view",
      "type": "function"
    },
    {
      "inputs": [],
      "name": "getPrice",
      "outputs": [
        {
          "internalType": "uint256",
          "name": "priceA_per_B_scaled",
          "type": "uint256"
        },
        {
          "internalType": "uint256",
          "name": "priceB_per_A_scaled",
          "type": "uint256"
        }
      ],
      "stateMutability": "view",
      "type": "function"
    },
    {
      "inputs": [],
      "name": "getReserves",
      "outputs": [
        {
          "internalType": "uint256",
          "name": "reserveA",
          "type": "uint256"
        },
        {
          "internalType": "uint256",
          "name": "reserveB",
          "type": "uint256"
        }
      ],
      "stateMutability": "view",
      "type": "function"
    },
    {
      "inputs": [],
      "name": "lpBadge",
      "outputs": [
        {
          "internalType": "contract IERC721",
          "name": "",
          "type": "address"
        }
      ],
      "stateMutability": "view",
      "type": "function"
    },
    {
      "inputs": [],
      "name": "lpToken",
      "outputs": [
        {
          "internalType": "contract ILPToken",
          "name": "",
          "type": "address"
        }
      ],
      "stateMutability": "view",
      "type": "function"
    },
    {
      "inputs": [],
      "name": "owner",
      "outputs": [
        {
          "internalType": "address",
          "name": "",
          "type": "address"
        }
      ],
      "stateMutability": "view",
      "type": "function"
    },
    {
      "inputs": [
        {
          "internalType": "uint256",
          "name": "lpBurnAmount",
          "type": "uint256"
        }
      ],
      "name": "removeLiquidity",
      "outputs": [
        {
          "internalType": "uint256",
          "name": "amountA",
          "type": "uint256"
        },
        {
          "internalType": "uint256",
          "name": "amountB",
          "type": "uint256"
        }
      ],
      "stateMutability": "nonpayable",
      "type": "function"
    },
    {
      "inputs": [],
      "name": "renounceOwnership",
      "outputs": [],
      "stateMutability": "nonpayable",
      "type": "function"
    },
    {
      "inputs": [
        {
          "internalType": "uint256",
          "name": "_feeBps",
          "type": "uint256"
        }
      ],
      "name": "setCharityFeeBps",
      "outputs": [],
      "stateMutability": "nonpayable",
      "type": "function"
    },
    {
      "inputs": [
        {
          "internalType": "address",
          "name": "_recipient",
          "type": "address"
        }
      ],
      "name": "setCharityRecipient",
      "outputs": [],
      "stateMutability": "nonpayable",
      "type": "function"
    },
    {
      "inputs": [
        {
          "internalType": "address",
          "name": "_lpBadge",
          "type": "address"
        }
      ],
      "name": "setLPBadge",
      "outputs": [],
      "stateMutability": "nonpayable",
      "type": "function"
    },
    {
      "inputs": [
        {
          "internalType": "address",
          "name": "_lpToken",
          "type": "address"
        }
      ],
      "name": "setLPToken",
      "outputs": [],
      "stateMutability": "nonpayable",
      "type": "function"
    },
    {
      "inputs": [
        {
          "internalType": "address",
          "name": "tokenIn",
          "type": "address"
        },
        {
          "internalType": "uint256",
          "name": "amountIn",
          "type": "uint256"
        },
        {
          "internalType": "uint256",
          "name": "amountOutMin",
          "type": "uint256"
        }
      ],
      "name": "swap",
      "outputs": [
        {
          "internalType": "uint256",
          "name": "amountOut",
          "type": "uint256"
        }
      ],
      "stateMutability": "payable",
      "type": "function"
    },
    {
      "inputs": [],
      "name": "tokenA",
      "outputs": [
        {
          "internalType": "address",
          "name": "",
          "type": "address"
        }
      ],
      "stateMutability": "view",
      "type": "function"
    },
    {
      "inputs": [],
      "name": "tokenB",
      "outputs": [
        {
          "internalType": "address",
          "name": "",
          "type": "address"
        }
      ],
      "stateMutability": "view",
      "type": "function"
    },
    {
      "inputs": [
        {
          "internalType": "address",
          "name": "newOwner",
          "type": "address"
        }
      ],
      "name": "transferOwnership",
      "outputs": [],
      "stateMutability": "nonpayable",
      "type": "function"
    },
    {
      "stateMutability": "payable",
      "type": "receive"
    }
  ],
  "bytecode": "0x60c060405260056003553480156200001657600080fd5b5060405162003b8738038062003b8783398181016040528101906200003c9190620002a3565b33600073ffffffffffffffffffffffffffffffffffffffff168173ffffffffffffffffffffffffffffffffffffffff1603620000b25760006040517f1e4fbdf7000000000000000000000000000000000000000000000000000000008152600401620000a99190620002fb565b60405180910390fd5b620000c3816200017560201b60201c565b508173ffffffffffffffffffffffffffffffffffffffff1660808173ffffffffffffffffffffffffffffffffffffffff16815250508073ffffffffffffffffffffffffffffffffffffffff1660a08173ffffffffffffffffffffffffffffffffffffffff168152505033600460006101000a81548173ffffffffffffffffffffffffffffffffffffffff021916908373ffffffffffffffffffffffffffffffffffffffff160217905550505062000318565b60008060009054906101000a900473ffffffffffffffffffffffffffffffffffffffff169050816000806101000a81548173ffffffffffffffffffffffffffffffffffffffff021916908373ffffffffffffffffffffffffffffffffffffffff1602179055508173ffffffffffffffffffffffffffffffffffffffff168173ffffffffffffffffffffffffffffffffffffffff167f8be0079c531659141344cd1fd0a4f28419497f9722a3daafe3b4186f6b6457e060405160405180910390a35050565b600080fd5b600073ffffffffffffffffffffffffffffffffffffffff82169050919050565b60006200026b826200023e565b9050919050565b6200027d816200025e565b81146200028957600080fd5b50565b6000815190506200029d8162000272565b92915050565b60008060408385031215620002bd57620002bc62000239565b5b6000620002cd858286016200028c565b9250506020620002e0858286016200028c565b9150509250929050565b620002f5816200025e565b82525050565b6000602082019050620003126000830184620002ea565b92915050565b60805160a05161378562000402600039600081816105a8015281816107b001528181610bfc01528181610d6301528181610e3c01528181610f89015281816114000152818161149b01528181611571015281816115b501528181611659015281816119e201528181611e0a0152611f5701526000818161057e015281816105d701528181610bce01528181610d3801528181610de701528181610f1001528181610f63015281816113d2015281816114440152818161152c015281816115fa0152818161162f0152818161196a01528181611db501528181611ede0152611f3101526137856000f3fe60806040526004361061014f5760003560e01c80639c8f9f23116100b6578063bf333f2c1161006f578063bf333f2c14610464578063c3c10cca1461048f578063c43f6e03146104ba578063ccb18cd5146104e5578063f140a35a14610510578063f2fde38b1461054d57610156565b80639c8f9f23146103475780639f1d0f5914610385578063acebd27f146103b5578063aebf3e41146103e0578063af0d9f9114610410578063b02e25681461043b57610156565b80636050d7e4116101085780636050d7e41461025c5780636a678a9c14610285578063715018a6146102ae5780638bb8e7de146102c55780638da5cb5b146102f057806398d5fdca1461031b57610156565b80630902f1ac1461015b5780630fc63d10146101875780632d9f54dc146101b25780635ddac515146101dd5780635f64b55b146102065780635fcbd2851461023157610156565b3661015657005b600080fd5b34801561016757600080fd5b50610170610576565b60405161017e92919061260f565b60405180910390f35b34801561019357600080fd5b5061019c6105d5565b6040516101a99190612679565b60405180910390f35b3480156101be57600080fd5b506101c76105f9565b6040516101d49190612694565b60405180910390f35b3480156101e957600080fd5b5061020460048036038101906101ff91906126e0565b610721565b005b34801561021257600080fd5b5061021b6107ae565b6040516102289190612679565b60405180910390f35b34801561023d57600080fd5b506102466107d2565b604051610253919061276c565b60405180910390f35b34801561026857600080fd5b50610283600480360381019061027e91906127b3565b6107f8565b005b34801561029157600080fd5b506102ac60048036038101906102a791906127b3565b6108f6565b005b3480156102ba57600080fd5b506102c36109d3565b005b3480156102d157600080fd5b506102da6109e7565b6040516102e79190612870565b60405180910390f35b3480156102fc57600080fd5b50610305610a03565b6040516103129190612679565b60405180910390f35b34801561032757600080fd5b50610330610a2c565b60405161033e92919061260f565b60405180910390f35b34801561035357600080fd5b5061036e600480360381019061036991906126e0565b610aa9565b60405161037c92919061260f565b60405180910390f35b61039f600480360381019061039a9190612892565b610de3565b6040516103ac9190612694565b60405180910390f35b3480156103c157600080fd5b506103ca6113be565b6040516103d79190612694565b60405180910390f35b6103fa60048036038101906103f591906128e5565b6113ca565b6040516104079190612694565b60405180910390f35b34801561041c57600080fd5b50610425611c77565b6040516104329190612679565b60405180910390f35b34801561044757600080fd5b50610462600480360381019061045d91906127b3565b611c9d565b005b34801561047057600080fd5b50610479611d7a565b6040516104869190612694565b60405180910390f35b34801561049b57600080fd5b506104a4611d7f565b6040516104b19190612694565b60405180910390f35b3480156104c657600080fd5b506104cf611d85565b6040516104dc9190612694565b60405180910390f35b3480156104f157600080fd5b506104fa611d8b565b604051610507919061296d565b60405180910390f35b34801561051c57600080fd5b5061053760048036038101906105329190612988565b611db1565b6040516105449190612694565b60405180910390f35b34801561055957600080fd5b50610574600480360381019061056f91906127b3565b61201b565b005b6000806105a37f0000000000000000000000000000000000000000000000000000000000000000306120a1565b6105cd7f0000000000000000000000000000000000000000000000000000000000000000306120a1565b915091509091565b7f000000000000000000000000000000000000000000000000000000000000000081565b60008073ffffffffffffffffffffffffffffffffffffffff16600160009054906101000a900473ffffffffffffffffffffffffffffffffffffffff1673ffffffffffffffffffffffffffffffffffffffff160361068b576040517f08c379a000000000000000000000000000000000000000000000000000000000815260040161068290612a14565b60405180910390fd5b600160009054906101000a900473ffffffffffffffffffffffffffffffffffffffff1673ffffffffffffffffffffffffffffffffffffffff166318160ddd6040518163ffffffff1660e01b8152600401602060405180830381865afa1580156106f8573d6000803e3d6000fd5b505050506040513d601f19601f8201168201806040525081019061071c9190612a49565b905090565b610729612178565b606481111561076d576040517f08c379a000000000000000000000000000000000000000000000000000000000815260040161076490612ac2565b60405180910390fd5b806003819055507f834ee851f1b286546a95550ab92fd1793506a207b51153b3c38696d1170edb14816040516107a39190612694565b60405180910390a150565b7f000000000000000000000000000000000000000000000000000000000000000081565b600160009054906101000a900473ffffffffffffffffffffffffffffffffffffffff1681565b610800612178565b600073ffffffffffffffffffffffffffffffffffffffff168173ffffffffffffffffffffffffffffffffffffffff160361086f576040517f08c379a000000000000000000000000000000000000000000000000000000000815260040161086690612b2e565b60405180910390fd5b80600460006101000a81548173ffffffffffffffffffffffffffffffffffffffff021916908373ffffffffffffffffffffffffffffffffffffffff1602179055508073ffffffffffffffffffffffffffffffffffffffff167f74a0d0211ee9a8bf2cf59b86c832678532f87cbf7cc3ef6af9d1e6d906081aa160405160405180910390a250565b6108fe612178565b600073ffffffffffffffffffffffffffffffffffffffff16600160009054906101000a900473ffffffffffffffffffffffffffffffffffffffff1673ffffffffffffffffffffffffffffffffffffffff161461098f576040517f08c379a000000000000000000000000000000000000000000000000000000000815260040161098690612b9a565b60405180910390fd5b80600160006101000a81548173ffffffffffffffffffffffffffffffffffffffff021916908373ffffffffffffffffffffffffffffffffffffffff16021790555050565b6109db612178565b6109e560006121ff565b565b6040518060800160405280605481526020016136fc6054913981565b60008060009054906101000a900473ffffffffffffffffffffffffffffffffffffffff16905090565b600080600080610a3a610576565b915091506000821480610a4d5750600081145b15610a6057600080935093505050610aa5565b80670de0b6b3a764000083610a759190612be9565b610a7f9190612c5a565b935081670de0b6b3a764000082610a969190612be9565b610aa09190612c5a565b925050505b9091565b60008060008311610aef576040517f08c379a0000000000000000000000000000000000000000000000000000000008152600401610ae690612cd7565b60405180910390fd5b6000600160009054906101000a900473ffffffffffffffffffffffffffffffffffffffff1673ffffffffffffffffffffffffffffffffffffffff166318160ddd6040518163ffffffff1660e01b8152600401602060405180830381865afa158015610b5e573d6000803e3d6000fd5b505050506040513d601f19601f82011682018060405250810190610b829190612a49565b905060008111610bc7576040517f08c379a0000000000000000000000000000000000000000000000000000000008152600401610bbe90612d43565b60405180910390fd5b6000610bf37f0000000000000000000000000000000000000000000000000000000000000000306120a1565b90506000610c217f0000000000000000000000000000000000000000000000000000000000000000306120a1565b9050828287610c309190612be9565b610c3a9190612c5a565b9450828187610c499190612be9565b610c539190612c5a565b9350600085118015610c655750600084115b610ca4576040517f08c379a0000000000000000000000000000000000000000000000000000000008152600401610c9b90612daf565b60405180910390fd5b600160009054906101000a900473ffffffffffffffffffffffffffffffffffffffff1673ffffffffffffffffffffffffffffffffffffffff16639dc29fac33886040518363ffffffff1660e01b8152600401610d01929190612dcf565b600060405180830381600087803b158015610d1b57600080fd5b505af1158015610d2f573d6000803e3d6000fd5b50505050610d5e7f000000000000000000000000000000000000000000000000000000000000000033876122c3565b610d897f000000000000000000000000000000000000000000000000000000000000000033866122c3565b3373ffffffffffffffffffffffffffffffffffffffff167f59c3a0b60c6ab7deb62e1440c9e72441db6db7dfe514dba8cb18e60c0d896efa868689604051610dd393929190612df8565b60405180910390a2505050915091565b60007f000000000000000000000000000000000000000000000000000000000000000073ffffffffffffffffffffffffffffffffffffffff168473ffffffffffffffffffffffffffffffffffffffff161480610e8a57507f000000000000000000000000000000000000000000000000000000000000000073ffffffffffffffffffffffffffffffffffffffff168473ffffffffffffffffffffffffffffffffffffffff16145b610ec9576040517f08c379a0000000000000000000000000000000000000000000000000000000008152600401610ec090612e7b565b60405180910390fd5b60008311610f0c576040517f08c379a0000000000000000000000000000000000000000000000000000000008152600401610f0390612ee7565b60405180910390fd5b60007f000000000000000000000000000000000000000000000000000000000000000073ffffffffffffffffffffffffffffffffffffffff168573ffffffffffffffffffffffffffffffffffffffff1614610f87577f0000000000000000000000000000000000000000000000000000000000000000610fa9565b7f00000000000000000000000000000000000000000000000000000000000000005b90506000610fb786306120a1565b90506000610fc583306120a1565b9050600082118015610fd75750600081115b611016576040517f08c379a000000000000000000000000000000000000000000000000000000000815260040161100d90612f53565b60405180910390fd5b600073ffffffffffffffffffffffffffffffffffffffff168773ffffffffffffffffffffffffffffffffffffffff16036110915785341461108c576040517f08c379a000000000000000000000000000000000000000000000000000000000815260040161108390612fbf565b60405180910390fd5b611194565b600034146110d4576040517f08c379a00000000000000000000000000000000000000000000000000000000081526004016110cb9061302b565b60405180910390fd5b8673ffffffffffffffffffffffffffffffffffffffff166323b872dd3330896040518463ffffffff1660e01b81526004016111119392919061304b565b6020604051808303816000875af1158015611130573d6000803e3d6000fd5b505050506040513d601f19601f8201168201806040525081019061115491906130ba565b611193576040517f08c379a000000000000000000000000000000000000000000000000000000000815260040161118a90613133565b60405180910390fd5b5b6000612710601e886111a69190612be9565b6111b09190612c5a565b90506000612710600354896111c59190612be9565b6111cf9190612c5a565b9050600082896111df9190613153565b90506000821180156112405750600073ffffffffffffffffffffffffffffffffffffffff16600460009054906101000a900473ffffffffffffffffffffffffffffffffffffffff1673ffffffffffffffffffffffffffffffffffffffff1614155b15611273576112728a600460009054906101000a900473ffffffffffffffffffffffffffffffffffffffff16846122c3565b5b600081856112819190612be9565b9050600082876112919190613187565b9050808261129f9190612c5a565b9850898910156112e4576040517f08c379a00000000000000000000000000000000000000000000000000000000081526004016112db9061322d565b60405180910390fd5b858910611326576040517f08c379a000000000000000000000000000000000000000000000000000000000815260040161131d90613299565b60405180910390fd5b61133188338b6122c3565b8773ffffffffffffffffffffffffffffffffffffffff168c73ffffffffffffffffffffffffffffffffffffffff163373ffffffffffffffffffffffffffffffffffffffff167f5380cf97d8f645d3c4896da60c053458dca03a3a31cec642ac80e1ddf0d8d02a8e8d6040516113a792919061260f565b60405180910390a450505050505050509392505050565b674563918244f4000081565b6000806113f77f0000000000000000000000000000000000000000000000000000000000000000306120a1565b905060006114257f0000000000000000000000000000000000000000000000000000000000000000306120a1565b9050600080600073ffffffffffffffffffffffffffffffffffffffff167f000000000000000000000000000000000000000000000000000000000000000073ffffffffffffffffffffffffffffffffffffffff161480156114d25750600073ffffffffffffffffffffffffffffffffffffffff167f000000000000000000000000000000000000000000000000000000000000000073ffffffffffffffffffffffffffffffffffffffff16145b15611512576040517f08c379a000000000000000000000000000000000000000000000000000000000815260040161150990613305565b60405180910390fd5b600073ffffffffffffffffffffffffffffffffffffffff167f000000000000000000000000000000000000000000000000000000000000000073ffffffffffffffffffffffffffffffffffffffff160361159b573491508790506115967f00000000000000000000000000000000000000000000000000000000000000008261246c565b611680565b600073ffffffffffffffffffffffffffffffffffffffff167f000000000000000000000000000000000000000000000000000000000000000073ffffffffffffffffffffffffffffffffffffffff16036116245788915034905061161f7f00000000000000000000000000000000000000000000000000000000000000008361246c565b61167f565b8891508790506116547f00000000000000000000000000000000000000000000000000000000000000008361246c565b61167e7f00000000000000000000000000000000000000000000000000000000000000008261246c565b5b5b600084148061168f5750600083145b15611749578682101580156116a45750858110155b6116e3576040517f08c379a00000000000000000000000000000000000000000000000000000000081526004016116da90613371565b60405180910390fd5b6000683635c9adc5dea0000090508095506103e882846117039190612be9565b11611743576040517f08c379a000000000000000000000000000000000000000000000000000000000815260040161173a906133dd565b60405180910390fd5b50611950565b60008484846117589190612be9565b6117629190612c5a565b9050818111611773578091506117d6565b60008486846117829190612be9565b61178c9190612c5a565b9050838111156117d1576040517f08c379a00000000000000000000000000000000000000000000000000000000081526004016117c890613449565b60405180910390fd5b809350505b87831015611819576040517f08c379a0000000000000000000000000000000000000000000000000000000008152600401611810906134b5565b60405180910390fd5b8682101561185c576040517f08c379a000000000000000000000000000000000000000000000000000000000815260040161185390613521565b60405180910390fd5b6000600160009054906101000a900473ffffffffffffffffffffffffffffffffffffffff1673ffffffffffffffffffffffffffffffffffffffff166318160ddd6040518163ffffffff1660e01b8152600401602060405180830381865afa1580156118cb573d6000803e3d6000fd5b505050506040513d601f19601f820116820180604052508101906118ef9190612a49565b90508584826118fe9190612be9565b6119089190612c5a565b96506000871161194d576040517f08c379a00000000000000000000000000000000000000000000000000000000081526004016119449061358d565b60405180910390fd5b50505b600073ffffffffffffffffffffffffffffffffffffffff167f000000000000000000000000000000000000000000000000000000000000000073ffffffffffffffffffffffffffffffffffffffff161480156119ab57508134115b156119c8576119c760003384346119c29190613153565b6122c3565b5b600073ffffffffffffffffffffffffffffffffffffffff167f000000000000000000000000000000000000000000000000000000000000000073ffffffffffffffffffffffffffffffffffffffff16148015611a2357508034115b15611a4057611a3f6000338334611a3a9190613153565b6122c3565b5b600160009054906101000a900473ffffffffffffffffffffffffffffffffffffffff1673ffffffffffffffffffffffffffffffffffffffff166340c10f1933876040518363ffffffff1660e01b8152600401611a9d929190612dcf565b600060405180830381600087803b158015611ab757600080fd5b505af1158015611acb573d6000803e3d6000fd5b505050506000808414611ade5783611ae1565b60015b8583611aed9190612be9565b611af79190612c5a565b83611b029190613187565b9050674563918244f400008110158015611b6b5750600073ffffffffffffffffffffffffffffffffffffffff16600260009054906101000a900473ffffffffffffffffffffffffffffffffffffffff1673ffffffffffffffffffffffffffffffffffffffff1614155b15611c1857600260009054906101000a900473ffffffffffffffffffffffffffffffffffffffff1673ffffffffffffffffffffffffffffffffffffffff16636b2bafc8336040518060800160405280605481526020016136fc605491396040518363ffffffff1660e01b8152600401611be59291906135ad565b600060405180830381600087803b158015611bff57600080fd5b505af1158015611c13573d6000803e3d6000fd5b505050505b3373ffffffffffffffffffffffffffffffffffffffff167fbeb3885786d637a474cbc287c0a44587231633a077f0bd30354d5a4b18996fce848489604051611c6293929190612df8565b60405180910390a25050505050949350505050565b600460009054906101000a900473ffffffffffffffffffffffffffffffffffffffff1681565b611ca5612178565b600073ffffffffffffffffffffffffffffffffffffffff16600260009054906101000a900473ffffffffffffffffffffffffffffffffffffffff1673ffffffffffffffffffffffffffffffffffffffff1614611d36576040517f08c379a0000000000000000000000000000000000000000000000000000000008152600401611d2d90613629565b60405180910390fd5b80600260006101000a81548173ffffffffffffffffffffffffffffffffffffffff021916908373ffffffffffffffffffffffffffffffffffffffff16021790555050565b601e81565b61271081565b60035481565b600260009054906101000a900473ffffffffffffffffffffffffffffffffffffffff1681565b60007f000000000000000000000000000000000000000000000000000000000000000073ffffffffffffffffffffffffffffffffffffffff168273ffffffffffffffffffffffffffffffffffffffff161480611e5857507f000000000000000000000000000000000000000000000000000000000000000073ffffffffffffffffffffffffffffffffffffffff168273ffffffffffffffffffffffffffffffffffffffff16145b611e97576040517f08c379a0000000000000000000000000000000000000000000000000000000008152600401611e8e90612e7b565b60405180910390fd5b60008311611eda576040517f08c379a0000000000000000000000000000000000000000000000000000000008152600401611ed190612ee7565b60405180910390fd5b60007f000000000000000000000000000000000000000000000000000000000000000073ffffffffffffffffffffffffffffffffffffffff168373ffffffffffffffffffffffffffffffffffffffff1614611f55577f0000000000000000000000000000000000000000000000000000000000000000611f77565b7f00000000000000000000000000000000000000000000000000000000000000005b90506000611f8584306120a1565b90506000611f9383306120a1565b90506000821480611fa45750600081145b15611fb55760009350505050612015565b6000612710601e612710611fc99190613153565b88611fd49190612be9565b611fde9190612c5a565b905060008183611fee9190612be9565b905060008285611ffe9190613187565b9050808261200c9190612c5a565b96505050505050505b92915050565b612023612178565b600073ffffffffffffffffffffffffffffffffffffffff168173ffffffffffffffffffffffffffffffffffffffff16036120955760006040517f1e4fbdf700000000000000000000000000000000000000000000000000000000815260040161208c9190612679565b60405180910390fd5b61209e816121ff565b50565b60008073ffffffffffffffffffffffffffffffffffffffff168373ffffffffffffffffffffffffffffffffffffffff16036120f5578173ffffffffffffffffffffffffffffffffffffffff16319050612172565b8273ffffffffffffffffffffffffffffffffffffffff166370a08231836040518263ffffffff1660e01b815260040161212e9190612679565b602060405180830381865afa15801561214b573d6000803e3d6000fd5b505050506040513d601f19601f8201168201806040525081019061216f9190612a49565b90505b92915050565b6121806125ee565b73ffffffffffffffffffffffffffffffffffffffff1661219e610a03565b73ffffffffffffffffffffffffffffffffffffffff16146121fd576121c16125ee565b6040517f118cdaa70000000000000000000000000000000000000000000000000000000081526004016121f49190612679565b60405180910390fd5b565b60008060009054906101000a900473ffffffffffffffffffffffffffffffffffffffff169050816000806101000a81548173ffffffffffffffffffffffffffffffffffffffff021916908373ffffffffffffffffffffffffffffffffffffffff1602179055508173ffffffffffffffffffffffffffffffffffffffff168173ffffffffffffffffffffffffffffffffffffffff167f8be0079c531659141344cd1fd0a4f28419497f9722a3daafe3b4186f6b6457e060405160405180910390a35050565b600073ffffffffffffffffffffffffffffffffffffffff168373ffffffffffffffffffffffffffffffffffffffff16036123a95760008273ffffffffffffffffffffffffffffffffffffffff168260405161231d9061367a565b60006040518083038185875af1925050503d806000811461235a576040519150601f19603f3d011682016040523d82523d6000602084013e61235f565b606091505b50509050806123a3576040517f08c379a000000000000000000000000000000000000000000000000000000000815260040161239a906136db565b60405180910390fd5b50612467565b8273ffffffffffffffffffffffffffffffffffffffff1663a9059cbb83836040518363ffffffff1660e01b81526004016123e4929190612dcf565b6020604051808303816000875af1158015612403573d6000803e3d6000fd5b505050506040513d601f19601f8201168201806040525081019061242791906130ba565b612466576040517f08c379a000000000000000000000000000000000000000000000000000000000815260040161245d90613133565b60405180910390fd5b5b505050565b600073ffffffffffffffffffffffffffffffffffffffff168273ffffffffffffffffffffffffffffffffffffffff16036124e7578034146124e2576040517f08c379a00000000000000000000000000000000000000000000000000000000081526004016124d990612fbf565b60405180910390fd5b6125ea565b6000341461252a576040517f08c379a00000000000000000000000000000000000000000000000000000000081526004016125219061302b565b60405180910390fd5b8173ffffffffffffffffffffffffffffffffffffffff166323b872dd3330846040518463ffffffff1660e01b81526004016125679392919061304b565b6020604051808303816000875af1158015612586573d6000803e3d6000fd5b505050506040513d601f19601f820116820180604052508101906125aa91906130ba565b6125e9576040517f08c379a00000000000000000000000000000000000000000000000000000000081526004016125e090613133565b60405180910390fd5b5b5050565b600033905090565b6000819050919050565b612609816125f6565b82525050565b60006040820190506126246000830185612600565b6126316020830184612600565b9392505050565b600073ffffffffffffffffffffffffffffffffffffffff82169050919050565b600061266382612638565b9050919050565b61267381612658565b82525050565b600060208201905061268e600083018461266a565b92915050565b60006020820190506126a96000830184612600565b92915050565b600080fd5b6126bd816125f6565b81146126c857600080fd5b50565b6000813590506126da816126b4565b92915050565b6000602082840312156126f6576126f56126af565b5b6000612704848285016126cb565b91505092915050565b6000819050919050565b600061273261272d61272884612638565b61270d565b612638565b9050919050565b600061274482612717565b9050919050565b600061275682612739565b9050919050565b6127668161274b565b82525050565b6000602082019050612781600083018461275d565b92915050565b61279081612658565b811461279b57600080fd5b50565b6000813590506127ad81612787565b92915050565b6000602082840312156127c9576127c86126af565b5b60006127d78482850161279e565b91505092915050565b600081519050919050565b600082825260208201905092915050565b60005b8381101561281a5780820151818401526020810190506127ff565b60008484015250505050565b6000601f19601f8301169050919050565b6000612842826127e0565b61284c81856127eb565b935061285c8185602086016127fc565b61286581612826565b840191505092915050565b6000602082019050818103600083015261288a8184612837565b905092915050565b6000806000606084860312156128ab576128aa6126af565b5b60006128b98682870161279e565b93505060206128ca868287016126cb565b92505060406128db868287016126cb565b9150509250925092565b600080600080608085870312156128ff576128fe6126af565b5b600061290d878288016126cb565b945050602061291e878288016126cb565b935050604061292f878288016126cb565b9250506060612940878288016126cb565b91505092959194509250565b600061295782612739565b9050919050565b6129678161294c565b82525050565b6000602082019050612982600083018461295e565b92915050565b6000806040838503121561299f5761299e6126af565b5b60006129ad858286016126cb565b92505060206129be8582860161279e565b9150509250929050565b7f4c5020746f6b656e206e6f742073657400000000000000000000000000000000600082015250565b60006129fe6010836127eb565b9150612a09826129c8565b602082019050919050565b60006020820190508181036000830152612a2d816129f1565b9050919050565b600081519050612a43816126b4565b92915050565b600060208284031215612a5f57612a5e6126af565b5b6000612a6d84828501612a34565b91505092915050565b7f4d61782031250000000000000000000000000000000000000000000000000000600082015250565b6000612aac6006836127eb565b9150612ab782612a76565b602082019050919050565b60006020820190508181036000830152612adb81612a9f565b9050919050565b7f5a65726f20616464726573730000000000000000000000000000000000000000600082015250565b6000612b18600c836127eb565b9150612b2382612ae2565b602082019050919050565b60006020820190508181036000830152612b4781612b0b565b9050919050565b7f4c5020746f6b656e20616c726561647920736574000000000000000000000000600082015250565b6000612b846014836127eb565b9150612b8f82612b4e565b602082019050919050565b60006020820190508181036000830152612bb381612b77565b9050919050565b7f4e487b7100000000000000000000000000000000000000000000000000000000600052601160045260246000fd5b6000612bf4826125f6565b9150612bff836125f6565b9250828202612c0d816125f6565b91508282048414831517612c2457612c23612bba565b5b5092915050565b7f4e487b7100000000000000000000000000000000000000000000000000000000600052601260045260246000fd5b6000612c65826125f6565b9150612c70836125f6565b925082612c8057612c7f612c2b565b5b828204905092915050565b7f4d757374206275726e203e2030204c5020746f6b656e73000000000000000000600082015250565b6000612cc16017836127eb565b9150612ccc82612c8b565b602082019050919050565b60006020820190508181036000830152612cf081612cb4565b9050919050565b7f4e6f206c697175696469747920696e20706f6f6c000000000000000000000000600082015250565b6000612d2d6014836127eb565b9150612d3882612cf7565b602082019050919050565b60006020820190508181036000830152612d5c81612d20565b9050919050565b7f546f6f206c6974746c65204c5020746f20776974686472617720746f6b656e73600082015250565b6000612d996020836127eb565b9150612da482612d63565b602082019050919050565b60006020820190508181036000830152612dc881612d8c565b9050919050565b6000604082019050612de4600083018561266a565b612df16020830184612600565b9392505050565b6000606082019050612e0d6000830186612600565b612e1a6020830185612600565b612e276040830184612600565b949350505050565b7f496e76616c696420746f6b656e00000000000000000000000000000000000000600082015250565b6000612e65600d836127eb565b9150612e7082612e2f565b602082019050919050565b60006020820190508181036000830152612e9481612e58565b9050919050565b7f416d6f756e7420696e206d7573742062652067726561746572207468616e2030600082015250565b6000612ed16020836127eb565b9150612edc82612e9b565b602082019050919050565b60006020820190508181036000830152612f0081612ec4565b9050919050565b7f496e73756666696369656e74206c697175696469747920696e20706f6f6c0000600082015250565b6000612f3d601e836127eb565b9150612f4882612f07565b602082019050919050565b60006020820190508181036000830152612f6c81612f30565b9050919050565b7f496e636f7272656374206e61746976652076616c75652073656e740000000000600082015250565b6000612fa9601b836127eb565b9150612fb482612f73565b602082019050919050565b60006020820190508181036000830152612fd881612f9c565b9050919050565b7f4e6f206e61746976652076616c75652065787065637465640000000000000000600082015250565b60006130156018836127eb565b915061302082612fdf565b602082019050919050565b6000602082019050818103600083015261304481613008565b9050919050565b6000606082019050613060600083018661266a565b61306d602083018561266a565b61307a6040830184612600565b949350505050565b60008115159050919050565b61309781613082565b81146130a257600080fd5b50565b6000815190506130b48161308e565b92915050565b6000602082840312156130d0576130cf6126af565b5b60006130de848285016130a5565b91505092915050565b7f4552433230207472616e73666572206661696c65640000000000000000000000600082015250565b600061311d6015836127eb565b9150613128826130e7565b602082019050919050565b6000602082019050818103600083015261314c81613110565b9050919050565b600061315e826125f6565b9150613169836125f6565b925082820390508181111561318157613180612bba565b5b92915050565b6000613192826125f6565b915061319d836125f6565b92508282019050808211156131b5576131b4612bba565b5b92915050565b7f496e73756666696369656e74206f757470757420616d6f756e7420647565207460008201527f6f20736c69707061676500000000000000000000000000000000000000000000602082015250565b6000613217602a836127eb565b9150613222826131bb565b604082019050919050565b600060208201905081810360008301526132468161320a565b9050919050565b7f496e76616c6964206f757470757420616d6f756e740000000000000000000000600082015250565b60006132836015836127eb565b915061328e8261324d565b602082019050919050565b600060208201905081810360008301526132b281613276565b9050919050565b7f426f746820746f6b656e732063616e6e6f74206265206e617469766500000000600082015250565b60006132ef601c836127eb565b91506132fa826132b9565b602082019050919050565b6000602082019050818103600083015261331e816132e2565b9050919050565b7f496e73756666696369656e7420696e697469616c206c69717569646974790000600082015250565b600061335b601e836127eb565b915061336682613325565b602082019050919050565b6000602082019050818103600083015261338a8161334e565b9050919050565b7f546f6f206c6974746c6520696e697469616c206c697175696469747900000000600082015250565b60006133c7601c836127eb565b91506133d282613391565b602082019050919050565b600060208201905081810360008301526133f6816133ba565b9050919050565b7f45786365737369766520736c69707061676520696e2041000000000000000000600082015250565b60006134336017836127eb565b915061343e826133fd565b602082019050919050565b6000602082019050818103600083015261346281613426565b9050919050565b7f496e73756666696369656e7420412070726f7669646564000000000000000000600082015250565b600061349f6017836127eb565b91506134aa82613469565b602082019050919050565b600060208201905081810360008301526134ce81613492565b9050919050565b7f496e73756666696369656e7420422070726f7669646564000000000000000000600082015250565b600061350b6017836127eb565b9150613516826134d5565b602082019050919050565b6000602082019050818103600083015261353a816134fe565b9050919050565b7f546f6f206c6974746c65206c6971756964697479206164646564000000000000600082015250565b6000613577601a836127eb565b915061358282613541565b602082019050919050565b600060208201905081810360008301526135a68161356a565b9050919050565b60006040820190506135c2600083018561266a565b81810360208301526135d48184612837565b90509392505050565b7f4c5020626164676520616c726561647920736574000000000000000000000000600082015250565b60006136136014836127eb565b915061361e826135dd565b602082019050919050565b6000602082019050818103600083015261364281613606565b9050919050565b600081905092915050565b50565b6000613664600083613649565b915061366f82613654565b600082019050919050565b600061368582613657565b9150819050919050565b7f4e6174697665207472616e73666572206661696c656400000000000000000000600082015250565b60006136c56016836127eb565b91506136d08261368f565b602082019050919050565b600060208201905081810360008301526136f4816136b8565b905091905056fe697066733a2f2f6261666b7265696762716c696b6637626735686671766b78616336696135336a65756e6b68646d3465616632656f32696d62786b6e347534616d712f6c705f62616467652e6a736f6e20202020a2646970667358221220357176f86cc5895e52a8d936f52b7ab42a74ad3498652fcdb252dff7fbe233a864736f6c63430008140033",
  "linkReferences": {},
  "deployedLinkReferences": {}
}