{
  "_format": "hh-sol-artifact-1",
  "contractName": "LPBadge",
  "sourceName": "contracts/LPBadge.sol",
  "abi": [
    {
      "inputs": [
        {
          "internalType": "address",
          "name": "initialOwner",
          "type": "address"
        },
        {
          "internalType": "string",
          "name": "baseTokenURI_",
          "type": "string"
        }
      ],
      "stateMutability": "nonpayable",
      "type": "constructor"
    },
    {
      "inputs": [
        {
          "internalType": "address",
          "name": "sender",
          "type": "address"
        },
        {
          "internalType": "uint256",
          "name": "tokenId",
          "type": "uint256"
        },
        {
          "internalType": "address",
          "name": "owner",
          "type": "address"
        }
      ],
      "name": "ERC721IncorrectOwner",
      "type": "error"
    },
    {
      "inputs": [
        {
          "internalType": "address",
          "name": "operator",
          "type": "address"
        },
        {
          "internalType": "uint256",
          "name": "tokenId",
          "type": "uint256"
        }
      ],
      "name": "ERC721InsufficientApproval",
      "type": "error"
    },
    {
      "inputs": [
        {
          "internalType": "address",
          "name": "approver",
          "type": "address"
        }
      ],
      "name": "ERC721InvalidApprover",
      "type": "error"
    },
    {
      "inputs": [
        {
          "internalType": "address",
          "name": "operator",
          "type": "address"
        }
      ],
      "name": "ERC721InvalidOperator",
      "type": "error"
    },
    {
      "inputs": [
        {
          "internalType": "address",
          "name": "owner",
          "type": "address"
        }
      ],
      "name": "ERC721InvalidOwner",
      "type": "error"
    },
    {
      "inputs": [
        {
          "internalType": "address",
          "name": "receiver",
          "type": "address"
        }
      ],
      "name": "ERC721InvalidReceiver",
      "type": "error"
    },
    {
      "inputs": [
        {
          "internalType": "address",
          "name": "sender",
          "type": "address"
        }
      ],
      "name": "ERC721InvalidSender",
      "type": "error"
    },
    {
      "inputs": [
        {
          "internalType": "uint256",
          "name": "tokenId",
          "type": "uint256"
        }
      ],
      "name": "ERC721NonexistentToken",
      "type": "error"
    },
    {
      "inputs": [
        {
          "internalType": "address",
          "name": "owner",
          "type": "address"
        }
      ],
      "name": "OwnableInvalidOwner",
      "type": "error"
    },
    {
      "inputs": [
        {
          "internalType": "address",
          "name": "account",
          "type": "address"
        }
      ],
      "name": "OwnableUnauthorizedAccount",
      "type": "error"
    },
    {
      "anonymous": false,
      "inputs": [
        {
          "indexed": true,
          "internalType": "address",
          "name": "owner",
          "type": "address"
        },
        {
          "indexed": true,
          "internalType": "address",
          "name": "approved",
          "type": "address"
        },
        {
          "indexed": true,
          "internalType": "uint256",
          "name": "tokenId",
          "type": "uint256"
        }
      ],
      "name": "Approval",
      "type": "event"
    },
    {
      "anonymous": false,
      "inputs": [
        {
          "indexed": true,
          "internalType": "address",
          "name": "owner",
          "type": "address"
        },
        {
          "indexed": true,
          "internalType": "address",
          "name": "operator",
          "type": "address"
        },
        {
          "indexed": false,
          "internalType": "bool",
          "name": "approved",
          "type": "bool"
        }
      ],
      "name": "ApprovalForAll",
      "type": "event"
    },
    {
      "anonymous": false,
      "inputs": [
        {
          "indexed": true,
          "internalType": "address",
          "name": "previousOwner",
          "type": "address"
        },
        {
          "indexed": true,
          "internalType": "address",
          "name": "newOwner",
          "type": "address"
        }
      ],
      "name": "OwnershipTransferred",
      "type": "event"
    },
    {
      "anonymous": false,
      "inputs": [
        {
          "indexed": true,
          "internalType": "address",
          "name": "from",
          "type": "address"
        },
        {
          "indexed": true,
          "internalType": "address",
          "name": "to",
          "type": "address"
        },
        {
          "indexed": true,
          "internalType": "uint256",
          "name": "tokenId",
          "type": "uint256"
        }
      ],
      "name": "Transfer",
      "type": "event"
    },
    {
      "inputs": [
        {
          "internalType": "address",
          "name": "to",
          "type": "address"
        },
        {
          "internalType": "uint256",
          "name": "tokenId",
          "type": "uint256"
        }
      ],
      "name": "approve",
      "outputs": [],
      "stateMutability": "nonpayable",
      "type": "function"
    },
    {
      "inputs": [
        {
          "internalType": "address",
          "name": "owner",
          "type": "address"
        }
      ],
      "name": "balanceOf",
      "outputs": [
        {
          "internalType": "uint256",
          "name": "",
          "type": "uint256"
        }
      ],
      "stateMutability": "view",
      "type": "function"
    },
    {
      "inputs": [
        {
          "internalType": "uint256",
          "name": "tokenId",
          "type": "uint256"
        }
      ],
      "name": "getApproved",
      "outputs": [
        {
          "internalType": "address",
          "name": "",
          "type": "address"
        }
      ],
      "stateMutability": "view",
      "type": "function"
    },
    {
      "inputs": [
        {
          "internalType": "address",
          "name": "owner",
          "type": "address"
        },
        {
          "internalType": "address",
          "name": "operator",
          "type": "address"
        }
      ],
      "name": "isApprovedForAll",
      "outputs": [
        {
          "internalType": "bool",
          "name": "",
          "type": "bool"
        }
      ],
      "stateMutability": "view",
      "type": "function"
    },
    {
      "inputs": [
        {
          "internalType": "address",
          "name": "to",
          "type": "address"
        }
      ],
      "name": "mintBadge",
      "outputs": [],
      "stateMutability": "nonpayable",
      "type": "function"
    },
    {
      "inputs": [],
      "name": "name",
      "outputs": [
        {
          "internalType": "string",
          "name": "",
          "type": "string"
        }
      ],
      "stateMutability": "view",
      "type": "function"
    },
    {
      "inputs": [],
      "name": "owner",
      "outputs": [
        {
          "internalType": "address",
          "name": "",
          "type": "address"
        }
      ],
      "stateMutability": "view",
      "type": "function"
    },
    {
      "inputs": [
        {
          "internalType": "uint256",
          "name": "tokenId",
          "type": "uint256"
        }
      ],
      "name": "ownerOf",
      "outputs": [
        {
          "internalType": "address",
          "name": "",
          "type": "address"
        }
      ],
      "stateMutability": "view",
      "type": "function"
    },
    {
      "inputs": [],
      "name": "renounceOwnership",
      "outputs": [],
      "stateMutability": "nonpayable",
      "type": "function"
    },
    {
      "inputs": [
        {
          "internalType": "address",
          "name": "from",
          "type": "address"
        },
        {
          "internalType": "address",
          "name": "to",
          "type": "address"
        },
        {
          "internalType": "uint256",
          "name": "tokenId",
          "type": "uint256"
        }
      ],
      "name": "safeTransferFrom",
      "outputs": [],
      "stateMutability": "nonpayable",
      "type": "function"
    },
    {
      "inputs": [
        {
          "internalType": "address",
          "name": "from",
          "type": "address"
        },
        {
          "internalType": "address",
          "name": "to",
          "type": "address"
        },
        {
          "internalType": "uint256",
          "name": "tokenId",
          "type": "uint256"
        },
        {
          "internalType": "bytes",
          "name": "data",
          "type": "bytes"
        }
      ],
      "name": "safeTransferFrom",
      "outputs": [],
      "stateMutability": "nonpayable",
      "type": "function"
    },
    {
      "inputs": [
        {
          "internalType": "address",
          "name": "operator",
          "type": "address"
        },
        {
          "internalType": "bool",
          "name": "approved",
          "type": "bool"
        }
      ],
      "name": "setApprovalForAll",
      "outputs": [],
      "stateMutability": "nonpayable",
      "type": "function"
    },
    {
      "inputs": [
        {
          "internalType": "string",
          "name": "baseTokenURI_",
          "type": "string"
        }
      ],
      "name": "setBaseURI",
      "outputs": [],
      "stateMutability": "nonpayable",
      "type": "function"
    },
    {
      "inputs": [
        {
          "internalType": "bytes4",
          "name": "interfaceId",
          "type": "bytes4"
        }
      ],
      "name": "supportsInterface",
      "outputs": [
        {
          "internalType": "bool",
          "name": "",
          "type": "bool"
        }
      ],
      "stateMutability": "view",
      "type": "function"
    },
    {
      "inputs": [],
      "name": "symbol",
      "outputs": [
        {
          "internalType": "string",
          "name": "",
          "type": "string"
        }
      ],
      "stateMutability": "view",
      "type": "function"
    },
    {
      "inputs": [
        {
          "internalType": "uint256",
          "name": "tokenId",
          "type": "uint256"
        }
      ],
      "name": "tokenURI",
      "outputs": [
        {
          "internalType": "string",
          "name": "",
          "type": "string"
        }
      ],
      "stateMutability": "view",
      "type": "function"
    },
    {
      "inputs": [
        {
          "internalType": "address",
          "name": "from",
          "type": "address"
        },
        {
          "internalType": "address",
          "name": "to",
          "type": "address"
        },
        {
          "internalType": "uint256",
          "name": "tokenId",
          "type": "uint256"
        }
      ],
      "name": "transferFrom",
      "outputs": [],
      "stateMutability": "nonpayable",
      "type": "function"
    },
    {
      "inputs": [
        {
          "internalType": "address",
          "name": "newOwner",
          "type": "address"
        }
      ],
      "name": "transferOwnership",
      "outputs": [],
      "stateMutability": "nonpayable",
      "type": "function"
    }
  ],
  "bytecode": "0x60806040523480156200001157600080fd5b5060405162002de938038062002de9833981810160405281019062000037919062000429565b816040518060400160405280600881526020017f4c502042616467650000000000000000000000000000000000000000000000008152506040518060400160405280600381526020017f4c504200000000000000000000000000000000000000000000000000000000008152508160009081620000b59190620006da565b508060019081620000c79190620006da565b505050600073ffffffffffffffffffffffffffffffffffffffff168173ffffffffffffffffffffffffffffffffffffffff16036200013f5760006040517f1e4fbdf7000000000000000000000000000000000000000000000000000000008152600401620001369190620007d2565b60405180910390fd5b62000150816200016b60201b60201c565b508060089081620001629190620006da565b505050620007ef565b6000600660009054906101000a900473ffffffffffffffffffffffffffffffffffffffff16905081600660006101000a81548173ffffffffffffffffffffffffffffffffffffffff021916908373ffffffffffffffffffffffffffffffffffffffff1602179055508173ffffffffffffffffffffffffffffffffffffffff168173ffffffffffffffffffffffffffffffffffffffff167f8be0079c531659141344cd1fd0a4f28419497f9722a3daafe3b4186f6b6457e060405160405180910390a35050565b6000604051905090565b600080fd5b600080fd5b600073ffffffffffffffffffffffffffffffffffffffff82169050919050565b6000620002728262000245565b9050919050565b620002848162000265565b81146200029057600080fd5b50565b600081519050620002a48162000279565b92915050565b600080fd5b600080fd5b6000601f19601f8301169050919050565b7f4e487b7100000000000000000000000000000000000000000000000000000000600052604160045260246000fd5b620002ff82620002b4565b810181811067ffffffffffffffff82111715620003215762000320620002c5565b5b80604052505050565b60006200033662000231565b9050620003448282620002f4565b919050565b600067ffffffffffffffff821115620003675762000366620002c5565b5b6200037282620002b4565b9050602081019050919050565b60005b838110156200039f57808201518184015260208101905062000382565b60008484015250505050565b6000620003c2620003bc8462000349565b6200032a565b905082815260208101848484011115620003e157620003e0620002af565b5b620003ee8482856200037f565b509392505050565b600082601f8301126200040e576200040d620002aa565b5b815162000420848260208601620003ab565b91505092915050565b600080604083850312156200044357620004426200023b565b5b6000620004538582860162000293565b925050602083015167ffffffffffffffff81111562000477576200047662000240565b5b6200048585828601620003f6565b9150509250929050565b600081519050919050565b7f4e487b7100000000000000000000000000000000000000000000000000000000600052602260045260246000fd5b60006002820490506001821680620004e257607f821691505b602082108103620004f857620004f76200049a565b5b50919050565b60008190508160005260206000209050919050565b60006020601f8301049050919050565b600082821b905092915050565b600060088302620005627fffffffffffffffffffffffffffffffffffffffffffffffffffffffffffffffff8262000523565b6200056e868362000523565b95508019841693508086168417925050509392505050565b6000819050919050565b6000819050919050565b6000620005bb620005b5620005af8462000586565b62000590565b62000586565b9050919050565b6000819050919050565b620005d7836200059a565b620005ef620005e682620005c2565b84845462000530565b825550505050565b600090565b62000606620005f7565b62000613818484620005cc565b505050565b5b818110156200063b576200062f600082620005fc565b60018101905062000619565b5050565b601f8211156200068a576200065481620004fe565b6200065f8462000513565b810160208510156200066f578190505b620006876200067e8562000513565b83018262000618565b50505b505050565b600082821c905092915050565b6000620006af600019846008026200068f565b1980831691505092915050565b6000620006ca83836200069c565b9150826002028217905092915050565b620006e5826200048f565b67ffffffffffffffff811115620007015762000700620002c5565b5b6200070d8254620004c9565b6200071a8282856200063f565b600060209050601f8311600181146200075257600084156200073d578287015190505b620007498582620006bc565b865550620007b9565b601f1984166200076286620004fe565b60005b828110156200078c5784890151825560018201915060208501945060208101905062000765565b86831015620007ac5784890151620007a8601f8916826200069c565b8355505b6001600288020188555050505b505050505050565b620007cc8162000265565b82525050565b6000602082019050620007e96000830184620007c1565b92915050565b6125ea80620007ff6000396000f3fe608060405234801561001057600080fd5b50600436106101165760003560e01c806370a08231116100a2578063a22cb46511610071578063a22cb465146102cb578063b88d4fde146102e7578063c87b56dd14610303578063e985e9c514610333578063f2fde38b1461036357610116565b806370a0823114610255578063715018a6146102855780638da5cb5b1461028f57806395d89b41146102ad57610116565b806323b872dd116100e957806323b872dd146101b557806342842e0e146101d15780634a36f6e4146101ed57806355f804b3146102095780636352211e1461022557610116565b806301ffc9a71461011b57806306fdde031461014b578063081812fc14610169578063095ea7b314610199575b600080fd5b61013560048036038101906101309190611954565b61037f565b604051610142919061199c565b60405180910390f35b610153610461565b6040516101609190611a47565b60405180910390f35b610183600480360381019061017e9190611a9f565b6104f3565b6040516101909190611b0d565b60405180910390f35b6101b360048036038101906101ae9190611b54565b61050f565b005b6101cf60048036038101906101ca9190611b94565b610525565b005b6101eb60048036038101906101e69190611b94565b610627565b005b61020760048036038101906102029190611be7565b610647565b005b610223600480360381019061021e9190611d49565b61067e565b005b61023f600480360381019061023a9190611a9f565b610699565b60405161024c9190611b0d565b60405180910390f35b61026f600480360381019061026a9190611be7565b6106ab565b60405161027c9190611da1565b60405180910390f35b61028d610765565b005b610297610779565b6040516102a49190611b0d565b60405180910390f35b6102b56107a3565b6040516102c29190611a47565b60405180910390f35b6102e560048036038101906102e09190611de8565b610835565b005b61030160048036038101906102fc9190611ec9565b61084b565b005b61031d60048036038101906103189190611a9f565b610870565b60405161032a9190611a47565b60405180910390f35b61034d60048036038101906103489190611f4c565b61091b565b60405161035a919061199c565b60405180910390f35b61037d60048036038101906103789190611be7565b6109af565b005b60007f80ac58cd000000000000000000000000000000000000000000000000000000007bffffffffffffffffffffffffffffffffffffffffffffffffffffffff1916827bffffffffffffffffffffffffffffffffffffffffffffffffffffffff1916148061044a57507f5b5e139f000000000000000000000000000000000000000000000000000000007bffffffffffffffffffffffffffffffffffffffffffffffffffffffff1916827bffffffffffffffffffffffffffffffffffffffffffffffffffffffff1916145b8061045a575061045982610a35565b5b9050919050565b60606000805461047090611fbb565b80601f016020809104026020016040519081016040528092919081815260200182805461049c90611fbb565b80156104e95780601f106104be576101008083540402835291602001916104e9565b820191906000526020600020905b8154815290600101906020018083116104cc57829003601f168201915b5050505050905090565b60006104fe82610a9f565b5061050882610b27565b9050919050565b610521828261051c610b64565b610b6c565b5050565b600073ffffffffffffffffffffffffffffffffffffffff168273ffffffffffffffffffffffffffffffffffffffff16036105975760006040517f64a0ae9200000000000000000000000000000000000000000000000000000000815260040161058e9190611b0d565b60405180910390fd5b60006105ab83836105a6610b64565b610b7e565b90508373ffffffffffffffffffffffffffffffffffffffff168173ffffffffffffffffffffffffffffffffffffffff1614610621578382826040517f64283d7b00000000000000000000000000000000000000000000000000000000815260040161061893929190611fec565b60405180910390fd5b50505050565b6106428383836040518060200160405280600081525061084b565b505050565b61064f610d98565b600060075490506001600760008282546106699190612052565b9250508190555061067a8282610e1f565b5050565b610686610d98565b80600890816106959190612232565b5050565b60006106a482610a9f565b9050919050565b60008073ffffffffffffffffffffffffffffffffffffffff168273ffffffffffffffffffffffffffffffffffffffff160361071e5760006040517f89c62b640000000000000000000000000000000000000000000000000000000081526004016107159190611b0d565b60405180910390fd5b600360008373ffffffffffffffffffffffffffffffffffffffff1673ffffffffffffffffffffffffffffffffffffffff168152602001908152602001600020549050919050565b61076d610d98565b6107776000610e3d565b565b6000600660009054906101000a900473ffffffffffffffffffffffffffffffffffffffff16905090565b6060600180546107b290611fbb565b80601f01602080910402602001604051908101604052809291908181526020018280546107de90611fbb565b801561082b5780601f106108005761010080835404028352916020019161082b565b820191906000526020600020905b81548152906001019060200180831161080e57829003601f168201915b5050505050905090565b610847610840610b64565b8383610f03565b5050565b610856848484610525565b61086a610861610b64565b85858585611072565b50505050565b6060600073ffffffffffffffffffffffffffffffffffffffff1661089383611223565b73ffffffffffffffffffffffffffffffffffffffff16036108e9576040517f08c379a00000000000000000000000000000000000000000000000000000000081526004016108e090612376565b60405180910390fd5b60086108f483611260565b604051602001610905929190612455565b6040516020818303038152906040529050919050565b6000600560008473ffffffffffffffffffffffffffffffffffffffff1673ffffffffffffffffffffffffffffffffffffffff16815260200190815260200160002060008373ffffffffffffffffffffffffffffffffffffffff1673ffffffffffffffffffffffffffffffffffffffff16815260200190815260200160002060009054906101000a900460ff16905092915050565b6109b7610d98565b600073ffffffffffffffffffffffffffffffffffffffff168173ffffffffffffffffffffffffffffffffffffffff1603610a295760006040517f1e4fbdf7000000000000000000000000000000000000000000000000000000008152600401610a209190611b0d565b60405180910390fd5b610a3281610e3d565b50565b60007f01ffc9a7000000000000000000000000000000000000000000000000000000007bffffffffffffffffffffffffffffffffffffffffffffffffffffffff1916827bffffffffffffffffffffffffffffffffffffffffffffffffffffffff1916149050919050565b600080610aab83611223565b9050600073ffffffffffffffffffffffffffffffffffffffff168173ffffffffffffffffffffffffffffffffffffffff1603610b1e57826040517f7e273289000000000000000000000000000000000000000000000000000000008152600401610b159190611da1565b60405180910390fd5b80915050919050565b60006004600083815260200190815260200160002060009054906101000a900473ffffffffffffffffffffffffffffffffffffffff169050919050565b600033905090565b610b79838383600161132e565b505050565b600080610b8a84611223565b9050600073ffffffffffffffffffffffffffffffffffffffff168373ffffffffffffffffffffffffffffffffffffffff1614610bcc57610bcb8184866114f3565b5b600073ffffffffffffffffffffffffffffffffffffffff168173ffffffffffffffffffffffffffffffffffffffff1614610c5d57610c0e60008560008061132e565b6001600360008373ffffffffffffffffffffffffffffffffffffffff1673ffffffffffffffffffffffffffffffffffffffff168152602001908152602001600020600082825403925050819055505b600073ffffffffffffffffffffffffffffffffffffffff168573ffffffffffffffffffffffffffffffffffffffff1614610ce0576001600360008773ffffffffffffffffffffffffffffffffffffffff1673ffffffffffffffffffffffffffffffffffffffff168152602001908152602001600020600082825401925050819055505b846002600086815260200190815260200160002060006101000a81548173ffffffffffffffffffffffffffffffffffffffff021916908373ffffffffffffffffffffffffffffffffffffffff160217905550838573ffffffffffffffffffffffffffffffffffffffff168273ffffffffffffffffffffffffffffffffffffffff167fddf252ad1be2c89b69c2b068fc378daa952ba7f163c4a11628f55a4df523b3ef60405160405180910390a4809150509392505050565b610da0610b64565b73ffffffffffffffffffffffffffffffffffffffff16610dbe610779565b73ffffffffffffffffffffffffffffffffffffffff1614610e1d57610de1610b64565b6040517f118cdaa7000000000000000000000000000000000000000000000000000000008152600401610e149190611b0d565b60405180910390fd5b565b610e398282604051806020016040528060008152506115b7565b5050565b6000600660009054906101000a900473ffffffffffffffffffffffffffffffffffffffff16905081600660006101000a81548173ffffffffffffffffffffffffffffffffffffffff021916908373ffffffffffffffffffffffffffffffffffffffff1602179055508173ffffffffffffffffffffffffffffffffffffffff168173ffffffffffffffffffffffffffffffffffffffff167f8be0079c531659141344cd1fd0a4f28419497f9722a3daafe3b4186f6b6457e060405160405180910390a35050565b600073ffffffffffffffffffffffffffffffffffffffff168273ffffffffffffffffffffffffffffffffffffffff1603610f7457816040517f5b08ba18000000000000000000000000000000000000000000000000000000008152600401610f6b9190611b0d565b60405180910390fd5b80600560008573ffffffffffffffffffffffffffffffffffffffff1673ffffffffffffffffffffffffffffffffffffffff16815260200190815260200160002060008473ffffffffffffffffffffffffffffffffffffffff1673ffffffffffffffffffffffffffffffffffffffff16815260200190815260200160002060006101000a81548160ff0219169083151502179055508173ffffffffffffffffffffffffffffffffffffffff168373ffffffffffffffffffffffffffffffffffffffff167f17307eab39ab6107e8899845ad3d59bd9653f200f220920489ca2b5937696c3183604051611065919061199c565b60405180910390a3505050565b60008373ffffffffffffffffffffffffffffffffffffffff163b111561121c578273ffffffffffffffffffffffffffffffffffffffff1663150b7a02868685856040518563ffffffff1660e01b81526004016110d194939291906124ce565b6020604051808303816000875af192505050801561110d57506040513d601f19601f8201168201806040525081019061110a919061252f565b60015b611191573d806000811461113d576040519150601f19603f3d011682016040523d82523d6000602084013e611142565b606091505b50600081510361118957836040517f64a0ae920000000000000000000000000000000000000000000000000000000081526004016111809190611b0d565b60405180910390fd5b805181602001fd5b63150b7a0260e01b7bffffffffffffffffffffffffffffffffffffffffffffffffffffffff1916817bffffffffffffffffffffffffffffffffffffffffffffffffffffffff19161461121a57836040517f64a0ae920000000000000000000000000000000000000000000000000000000081526004016112119190611b0d565b60405180910390fd5b505b5050505050565b60006002600083815260200190815260200160002060009054906101000a900473ffffffffffffffffffffffffffffffffffffffff169050919050565b60606000600161126f846115db565b01905060008167ffffffffffffffff81111561128e5761128d611c1e565b5b6040519080825280601f01601f1916602001820160405280156112c05781602001600182028036833780820191505090505b509050600082602001820190505b600115611323578080600190039150507f3031323334353637383961626364656600000000000000000000000000000000600a86061a8153600a85816113175761131661255c565b5b049450600085036112ce575b819350505050919050565b80806113675750600073ffffffffffffffffffffffffffffffffffffffff168273ffffffffffffffffffffffffffffffffffffffff1614155b1561149b57600061137784610a9f565b9050600073ffffffffffffffffffffffffffffffffffffffff168373ffffffffffffffffffffffffffffffffffffffff16141580156113e257508273ffffffffffffffffffffffffffffffffffffffff168173ffffffffffffffffffffffffffffffffffffffff1614155b80156113f557506113f3818461091b565b155b1561143757826040517fa9fbf51f00000000000000000000000000000000000000000000000000000000815260040161142e9190611b0d565b60405180910390fd5b811561149957838573ffffffffffffffffffffffffffffffffffffffff168273ffffffffffffffffffffffffffffffffffffffff167f8c5be1e5ebec7d5bd14f71427d1e84f3dd0314c0f7b2291e5b200ac8c7c3b92560405160405180910390a45b505b836004600085815260200190815260200160002060006101000a81548173ffffffffffffffffffffffffffffffffffffffff021916908373ffffffffffffffffffffffffffffffffffffffff16021790555050505050565b6114fe83838361172e565b6115b257600073ffffffffffffffffffffffffffffffffffffffff168373ffffffffffffffffffffffffffffffffffffffff160361157357806040517f7e27328900000000000000000000000000000000000000000000000000000000815260040161156a9190611da1565b60405180910390fd5b81816040517f177e802f0000000000000000000000000000000000000000000000000000000081526004016115a992919061258b565b60405180910390fd5b505050565b6115c183836117ef565b6115d66115cc610b64565b6000858585611072565b505050565b600080600090507a184f03e93ff9f4daa797ed6e38ed64bf6a1f0100000000000000008310611639577a184f03e93ff9f4daa797ed6e38ed64bf6a1f010000000000000000838161162f5761162e61255c565b5b0492506040810190505b6d04ee2d6d415b85acef81000000008310611676576d04ee2d6d415b85acef8100000000838161166c5761166b61255c565b5b0492506020810190505b662386f26fc1000083106116a557662386f26fc10000838161169b5761169a61255c565b5b0492506010810190505b6305f5e10083106116ce576305f5e10083816116c4576116c361255c565b5b0492506008810190505b61271083106116f35761271083816116e9576116e861255c565b5b0492506004810190505b60648310611716576064838161170c5761170b61255c565b5b0492506002810190505b600a8310611725576001810190505b80915050919050565b60008073ffffffffffffffffffffffffffffffffffffffff168373ffffffffffffffffffffffffffffffffffffffff16141580156117e657508273ffffffffffffffffffffffffffffffffffffffff168473ffffffffffffffffffffffffffffffffffffffff1614806117a757506117a6848461091b565b5b806117e557508273ffffffffffffffffffffffffffffffffffffffff166117cd83610b27565b73ffffffffffffffffffffffffffffffffffffffff16145b5b90509392505050565b600073ffffffffffffffffffffffffffffffffffffffff168273ffffffffffffffffffffffffffffffffffffffff16036118615760006040517f64a0ae920000000000000000000000000000000000000000000000000000000081526004016118589190611b0d565b60405180910390fd5b600061186f83836000610b7e565b9050600073ffffffffffffffffffffffffffffffffffffffff168173ffffffffffffffffffffffffffffffffffffffff16146118e35760006040517f73c6ac6e0000000000000000000000000000000000000000000000000000000081526004016118da9190611b0d565b60405180910390fd5b505050565b6000604051905090565b600080fd5b600080fd5b60007fffffffff0000000000000000000000000000000000000000000000000000000082169050919050565b611931816118fc565b811461193c57600080fd5b50565b60008135905061194e81611928565b92915050565b60006020828403121561196a576119696118f2565b5b60006119788482850161193f565b91505092915050565b60008115159050919050565b61199681611981565b82525050565b60006020820190506119b1600083018461198d565b92915050565b600081519050919050565b600082825260208201905092915050565b60005b838110156119f15780820151818401526020810190506119d6565b60008484015250505050565b6000601f19601f8301169050919050565b6000611a19826119b7565b611a2381856119c2565b9350611a338185602086016119d3565b611a3c816119fd565b840191505092915050565b60006020820190508181036000830152611a618184611a0e565b905092915050565b6000819050919050565b611a7c81611a69565b8114611a8757600080fd5b50565b600081359050611a9981611a73565b92915050565b600060208284031215611ab557611ab46118f2565b5b6000611ac384828501611a8a565b91505092915050565b600073ffffffffffffffffffffffffffffffffffffffff82169050919050565b6000611af782611acc565b9050919050565b611b0781611aec565b82525050565b6000602082019050611b226000830184611afe565b92915050565b611b3181611aec565b8114611b3c57600080fd5b50565b600081359050611b4e81611b28565b92915050565b60008060408385031215611b6b57611b6a6118f2565b5b6000611b7985828601611b3f565b9250506020611b8a85828601611a8a565b9150509250929050565b600080600060608486031215611bad57611bac6118f2565b5b6000611bbb86828701611b3f565b9350506020611bcc86828701611b3f565b9250506040611bdd86828701611a8a565b9150509250925092565b600060208284031215611bfd57611bfc6118f2565b5b6000611c0b84828501611b3f565b91505092915050565b600080fd5b600080fd5b7f4e487b7100000000000000000000000000000000000000000000000000000000600052604160045260246000fd5b611c56826119fd565b810181811067ffffffffffffffff82111715611c7557611c74611c1e565b5b80604052505050565b6000611c886118e8565b9050611c948282611c4d565b919050565b600067ffffffffffffffff821115611cb457611cb3611c1e565b5b611cbd826119fd565b9050602081019050919050565b82818337600083830152505050565b6000611cec611ce784611c99565b611c7e565b905082815260208101848484011115611d0857611d07611c19565b5b611d13848285611cca565b509392505050565b600082601f830112611d3057611d2f611c14565b5b8135611d40848260208601611cd9565b91505092915050565b600060208284031215611d5f57611d5e6118f2565b5b600082013567ffffffffffffffff811115611d7d57611d7c6118f7565b5b611d8984828501611d1b565b91505092915050565b611d9b81611a69565b82525050565b6000602082019050611db66000830184611d92565b92915050565b611dc581611981565b8114611dd057600080fd5b50565b600081359050611de281611dbc565b92915050565b60008060408385031215611dff57611dfe6118f2565b5b6000611e0d85828601611b3f565b9250506020611e1e85828601611dd3565b9150509250929050565b600067ffffffffffffffff821115611e4357611e42611c1e565b5b611e4c826119fd565b9050602081019050919050565b6000611e6c611e6784611e28565b611c7e565b905082815260208101848484011115611e8857611e87611c19565b5b611e93848285611cca565b509392505050565b600082601f830112611eb057611eaf611c14565b5b8135611ec0848260208601611e59565b91505092915050565b60008060008060808587031215611ee357611ee26118f2565b5b6000611ef187828801611b3f565b9450506020611f0287828801611b3f565b9350506040611f1387828801611a8a565b925050606085013567ffffffffffffffff811115611f3457611f336118f7565b5b611f4087828801611e9b565b91505092959194509250565b60008060408385031215611f6357611f626118f2565b5b6000611f7185828601611b3f565b9250506020611f8285828601611b3f565b9150509250929050565b7f4e487b7100000000000000000000000000000000000000000000000000000000600052602260045260246000fd5b60006002820490506001821680611fd357607f821691505b602082108103611fe657611fe5611f8c565b5b50919050565b60006060820190506120016000830186611afe565b61200e6020830185611d92565b61201b6040830184611afe565b949350505050565b7f4e487b7100000000000000000000000000000000000000000000000000000000600052601160045260246000fd5b600061205d82611a69565b915061206883611a69565b92508282019050808211156120805761207f612023565b5b92915050565b60008190508160005260206000209050919050565b60006020601f8301049050919050565b600082821b905092915050565b6000600883026120e87fffffffffffffffffffffffffffffffffffffffffffffffffffffffffffffffff826120ab565b6120f286836120ab565b95508019841693508086168417925050509392505050565b6000819050919050565b600061212f61212a61212584611a69565b61210a565b611a69565b9050919050565b6000819050919050565b61214983612114565b61215d61215582612136565b8484546120b8565b825550505050565b600090565b612172612165565b61217d818484612140565b505050565b5b818110156121a15761219660008261216a565b600181019050612183565b5050565b601f8211156121e6576121b781612086565b6121c08461209b565b810160208510156121cf578190505b6121e36121db8561209b565b830182612182565b50505b505050565b600082821c905092915050565b6000612209600019846008026121eb565b1980831691505092915050565b600061222283836121f8565b9150826002028217905092915050565b61223b826119b7565b67ffffffffffffffff81111561225457612253611c1e565b5b61225e8254611fbb565b6122698282856121a5565b600060209050601f83116001811461229c576000841561228a578287015190505b6122948582612216565b8655506122fc565b601f1984166122aa86612086565b60005b828110156122d2578489015182556001820191506020850194506020810190506122ad565b868310156122ef57848901516122eb601f8916826121f8565b8355505b6001600288020188555050505b505050505050565b7f4552433732313a2055524920717565727920666f72206e6f6e6578697374656e60008201527f7420746f6b656e00000000000000000000000000000000000000000000000000602082015250565b60006123606027836119c2565b915061236b82612304565b604082019050919050565b6000602082019050818103600083015261238f81612353565b9050919050565b600081905092915050565b600081546123ae81611fbb565b6123b88186612396565b945060018216600081146123d357600181146123e85761241b565b60ff198316865281151582028601935061241b565b6123f185612086565b60005b83811015612413578154818901526001820191506020810190506123f4565b838801955050505b50505092915050565b600061242f826119b7565b6124398185612396565b93506124498185602086016119d3565b80840191505092915050565b600061246182856123a1565b915061246d8284612424565b91508190509392505050565b600081519050919050565b600082825260208201905092915050565b60006124a082612479565b6124aa8185612484565b93506124ba8185602086016119d3565b6124c3816119fd565b840191505092915050565b60006080820190506124e36000830187611afe565b6124f06020830186611afe565b6124fd6040830185611d92565b818103606083015261250f8184612495565b905095945050505050565b60008151905061252981611928565b92915050565b600060208284031215612545576125446118f2565b5b60006125538482850161251a565b91505092915050565b7f4e487b7100000000000000000000000000000000000000000000000000000000600052601260045260246000fd5b60006040820190506125a06000830185611afe565b6125ad6020830184611d92565b939250505056fea26469706673582212205167b195267b18128967bbb9b466ee0894f45eb088058eb611753cfdcd69b30864736f6c63430008140033",
  "linkReferences": {},
  "deployedLinkReferences": {}
}